S315080000003812002089010008393A000861320008D0
S31508000010113A00089701000899010008000000003D
S315080000200000000000000000000000003940000841
S31508000030E903000800000000A93A000891400008FA
S31508000040A3010008A3010008A3010008A3010008F2
S31508000050A3010008A3010008A3010008A3010008E2
S31508000060A3010008A3010008A3010008A3010008D2
S31508000070A30100085903000869030008790300086A
S3150800008089030008A3010008A3010008A3010008CA
S31508000090A3010008A3010008A30100080904000839
S315080000A0A301000809410008A3010008A3010008EC
S315080000B0A3010008A3010008A3010008A301000882
S315080000C0A3010008A3010008A3010008913D000848
S315080000D0A3010008A3010008BD4C0008A3010008FD
S315080000E0ED030008A3010008A301000800F002F8C8
S315080000F000F03AF80AA090E8000C82448344AAF17A
S315080001000107DA4501D100F02FF8AFF2090EBAE877
S315080001100F0013F0010F18BFFB1A43F0010318472D
S315080001203C7800005C780000103A24BF78C878C193
S31508000130FAD8520724BF30C830C144BF04680C60DF
S31508000140704700000023002400250026103A28BF27
S3150800015078C1FBD8520728BF30C148BF0B6070472B
S315080001601FB51FBD10B510BD00F0C7F81146FFF743
S31508000170F7FF06F04DFA00F0E5F803B4FFF7F2FFD3
S3150800018003BC00F0ABF8000009488047094800475F
S31508000190FEE7FEE7FEE7FEE7FEE7FEE7FEE7FEE729
S315080001A0FEE7FEE704480549054A064B7047000086
S315080001B005410008ED000008380C00203812002020
S315080001C0380E0020380E002010B5203AC0F00B80FB
S315080001D0B1E81850A0E81850B1E81850A0E818502F
S315080001E0203ABFF4F5AF5FEA027C24BFB1E81850A5
S315080001F0A0E8185044BF18C918C0BDE810405FEA07
S31508000200827C24BF51F8043B40F8043B08BF704782
S31508000210D20728BF31F8023B48BF11F8012B28BF87
S3150800022020F8023B48BF00F8012B70474FF0000248
S315080002300429C0F0128010F0030C00F01B80CCF1EA
S31508000240040CBCF1020F18BF00F8012BA8BF20F858
S31508000250022BA1EB0C0100F00DB85FEAC17C24BFAC
S3150800026000F8012B00F8012B48BF00F8012B704756
S315080002704FF0000200B5134694469646203922BF31
S31508000280A0E80C50A0E80C50B1F12001BFF4F7AF7C
S31508000290090728BFA0E80C5048BF0CC05DF804EB5E
S315080002A0890028BF40F8042B08BF704748BF20F8CC
S315080002B0022B11F0804F18BF00F8012B70477047CA
S315080002C07047704710B500F00FF8006810BD10B5FC
S315080002D0044600F009F8046010BD00000149182022
S315080002E0ABBEFEE72600020000487047100000205B
S315080002F0004870471000002070477546FFF7F8FF62
S31508000300AE4605006946534620F00700854618B0F4
S3150800031020B5FFF747FFBDE820404FF000064FF035
S3150800032000074FF000084FF0000BAC46ACE8C009D8
S31508000330ACE8C009ACE8C009ACE8C00921F007017F
S315080003408D46704710B50446AFF300802046BDE8D9
S315080003501040FFF712BF000080B540F21C30C2F211
S31508000360000000F023F980BD80B540F2AC30C2F23F
S31508000370000000F01BF980BD80B540F26430C2F27F
S31508000380000000F013F980BD80B540F2F430C2F2E7
S31508000390000000F00BF980BD84B003900291019231
S315080003A000930398016C426C0120904048600098C5
S315080003B003990968486003984068102809D1FFE73F
S315080003C00198039909688860029803990968C860C2
S315080003D008E00298039909688860019803990968F2
S315080003E0C860FFE704B070477047000080B54FF457
S315080003F0006000F027FB4FF4805000F023FB4FF419
S31508000400804000F01FFB80BD80B54FF4807000F07F
S3150800041019FB80BD81B0EFF3108072B60090FFE73C
S31508000420FEE7000083B00190002000900198406A22
S3150800043002280BD0FFE701990420C863FFE701995A
S3150800044000200862FFE7012002901DE0019801687C
S31508000450086820F00E00086001980168086820F016
S31508000460010008600198016C426C012090404860C8
S31508000470FFE7019901204862FFE701990020086219
S31508000480FFE700980290FFE7029803B07047000064
S3150800049080B588B00790002006900798406A022821
S315080004A006D0FFE707990420C8630120069074E088
S315080004B007980168086820F00E0008600798016828
S315080004C0086820F001000860079800680821C4F24F
S315080004D00201884203D1FFE70120059047E007980B
S315080004E000681C21C4F20201884203D1FFE71020EC
S315080004F0049039E0079800683021C4F20201884266
S3150800050004D1FFE74FF4807003902AE0079800684B
S315080005104421C4F20201884204D1FFE74FF4805017
S3150800052002901BE0079800685821C4F2020188422D
S3150800053004D1FFE74FF4803001900CE0079801687A
S315080005406C22C4F202024FF08070914208BF4FF449
S3150800055080100190FFE701980290FFE70298039048
S31508000560FFE703980490FFE704980590FFE70598CE
S315080005700421C4F202010860079901204862FFE7D6
S31508000580079900200862FFE70798806B20B1FFE70C
S315080005900798816B8847FFE7FFE7069808B080BD94
S315080005A081B000900098406A01B0704780B58EB05F
S315080005B00D900D98006C00680C900D980068006806
S315080005C00B900C980D99496CC8404007002875D5C2
S315080005D0FFE79DF82C00400700286FD5FFE70D9828
S315080005E0006800688006002807D4FFE70D980168B0
S315080005F0086820F004000860FFE70D9800680821E5
S31508000600C4F20201884203D1FFE704200A9047E0BA
S315080006100D9800681C21C4F20201884203D1FFE745
S315080006204020099039E00D9800683021C4F2020193
S31508000630884204D1FFE74FF4806008902AE00D98BD
S3150800064000684421C4F20201884204D1FFE74FF44E
S31508000650804007901BE00D9800685821C4F20201FB
S31508000660884204D1FFE74FF4802006900CE00D98ED
S3150800067001686C22C4F202024FF08060914208BF02
S315080006804FF480000690FFE706980790FFE7079863
S315080006900890FFE708980990FFE709980A90FFE78E
S315080006A00A980421C4F2020108600D98006B20B173
S315080006B0FFE70D98016B8847FFE7B3E00C980D99A3
S315080006C0496CC840800700287DD5FFE79DF82C00B7
S315080006D08007002877D5FFE70D9800680068800630
S315080006E000280AD4FFE70D980168086820F00A0078
S315080006F008600D9901204862FFE70D9800680821F7
S31508000700C4F20201884203D1FFE70220059047E0C0
S315080007100D9800681C21C4F20201884203D1FFE744
S315080007202020049039E00D9800683021C4F20201B7
S31508000730884204D1FFE74FF4007003902AE00D9831
S3150800074000684421C4F20201884204D1FFE74FF44D
S31508000750005002901BE00D9800685821C4F202016F
S31508000760884204D1FFE74FF4003001900CE00D9861
S3150800077001686C22C4F202024FF00070914208BF71
S315080007804FF400100190FFE701980290FFE70298E6
S315080007900390FFE703980490FFE704980590FFE7A6
S315080007A005980421C4F202010860FFE70D990020AC
S315080007B00862FFE70D98C06A20B1FFE70D98C16A85
S315080007C08847FFE72DE00C980D99496CC84000074B
S315080007D0002825D5FFE79DF82C00000700281FD51F
S315080007E0FFE70D980168086820F00E0008600D986C
S315080007F0026C416C012000FA01F151600D99C86341
S315080008000D994862FFE70D9900200862FFE70D98E9
S31508000810406B20B1FFE70D98416B8847FFE7FFE77C
S31508000820FFE7FFE70EB080BD83B00190002000907F
S31508000830019818B9FFE70120029043E0019908687A
S315080008404FF6F872CBF6FD7210444CF6CD42CCF654
S31508000850CC42A0FB02026FF0030000EA9200486453
S3150800086001990020C4F20200086401990220486236
S315080008700198006800680090009843F6F071884374
S31508000880009001994868D1F808C0CB680A6940EA1F
S315080008900C00184310434A6910438A691043C96912
S315080008A00143009808430090009801990968086078
S315080008B001990020C863019A0121516201990862D1
S315080008C00290FFE7029803B07047000080B586B033
S315080008D0049003910292019300200090FFE7049888
S315080008E0006A012803D1FFE70220059045E0049934
S315080008F001200862FFE7FFE70498406A012831D122
S31508000900FFE704990220486204990020C863049806
S315080009100168086820F00100086004980399029AA3
S31508000920019BFFF739FD0498006B38B1FFE704987F
S315080009300168086840F00E0008600CE00498016839
S31508000940086820F00400086004980168086840F008
S315080009500A000860FFE704980168086840F001008B
S31508000960086007E0FFE7049900200862FFE7022015
S315080009700090FFE700980590FFE7059806B080BD50
S3150800098080B584B0039000F009FA029003980190AC
S315080009900198013048B1FFE740F20400C2F20000B6
S315080009A00168019808440190FFE7FFE700F0F6F9AF
S315080009B00299401A0199884201D2FFE7F6E704B086
S315080009C080BD000080B582B0ADF80600BDF806000F
S315080009D001460091B0F5807F16D0FFE70098B0F584
S315080009E0006F19D0FFE70098B0F5805F1DD0FFE7CC
S315080009F00098B0F5804F21D1FFE740F23870C2F277
S31508000A00000005F04FF91AE040F23870C2F2000013
S31508000A10E83005F047F912E040F23870C2F20000FB
S31508000A2000F5E87005F03EF909E040F23870C2F2C8
S31508000A30000000F52E7005F035F900E0FFE702B07A
S31508000A4080BD000080B582B0ADF8060040F21440C3
S31508000A50C4F201000068BDF8061008420CD0FFE792
S31508000A60BDF8060040F21441C4F201010860BDF861
S31508000A700600FFF7A7FFFFE702B080BD90B00F9012
S31508000A800E9100200D900990FFE70E9800680D99C9
S31508000A90C840002800F07F81FFE70D9901208840B3
S31508000AA00C900E9800680C9908400B900B980C99BE
S31508000AB0884240F06C81FFE70E9840680590002850
S31508000AC051D0FFE7059801283AD0FFE70598022894
S31508000AD03FD0FFE7059803285FD0FFE70598112860
S31508000AE032D0FFE70598122838D0FFE7059800218D
S31508000AF0C1F21101884236D0FFE705980021C1F2FC
S31508000B00120188422FD0FFE705980021C1F2210182
S31508000B10884228D0FFE705980021C1F222018842C1
S31508000B2021D0FFE705980021C1F2310188421AD089
S31508000B30FFE705980021C1F23201884213D02FE061
S31508000B400E98C06809902CE00E98C0680430099089
S31508000B5027E00E98C0680830099022E00E98C06811
S31508000B600C3009901DE00E98806818B9FFE704203C
S31508000B70099011E00E988068012806D1FFE7082041
S31508000B8009900C980F99086105E0082009900C98BF
S31508000B900F994861FFE7FFE703E00020099000E0AE
S31508000BA0FFE70B98FF2803D8FFE70F98049003E0A8
S31508000BB00F9804300490FFE7049808900B98FF28D4
S31508000BC004D8FFE70D988000039006E00D996FF0B2
S31508000BD01F0000EB81000390FFE703980790089831
S31508000BE00068079A0F219140884309999140084364
S31508000BF0089908600E98C079C006002840F1C6809A
S31508000C00FFE7FFE741F21800C4F20200016841F06D
S31508000C1001010160006800F0010006900698FFE7F0
S31508000C200D9820F003000821C4F2010140580A90EB
S31508000C300D9800F0030081000F2000FA01F10A98D0
S31508000C4088430A900F9840F60001C4F201018842D1
S31508000C5003D1FFE70020029026E00F9840F60041F6
S31508000C60C4F20101884203D1FFE70120019018E090
S31508000C700F9841F20001C4F20101884203D1FFE74F
S31508000C80022000900AE00F9941F20042C4F20102E4
S31508000C900420914208BF03200090FFE700980190C6
S31508000CA0FFE701980290FFE702980D9901F003010A
S31508000CB0890000FA01F10A9808430A900A980D99E2
S31508000CC021F003010822C4F2010288500E988079A7
S31508000CD0C006002809D5FFE70B9A40F20841C4F27E
S31508000CE0010108681043086008E00B9A40F20841C1
S31508000CF0C4F20101086890430860FFE70E988079FE
S31508000D008006002809D5FFE70B9A40F20C41C4F289
S31508000D10010108681043086008E00B9A40F20C418C
S31508000D20C4F20101086890430860FFE70E988079CD
S31508000D308007002809D5FFE70B9A40F20441C4F260
S31508000D40010108681043086008E00B9A40F2044164
S31508000D50C4F20101086890430860FFE70E9880799D
S31508000D60C00748B1FFE70B9A40F20041C4F20101FF
S31508000D7008681043086008E00B9A40F20041C4F284
S31508000D800101086890430860FFE7FFE7FFE70D9851
S31508000D9001300D9079E610B07047000040F63040FB
S31508000DA0C2F200000068704740F20400C2F2000078
S31508000DB0026840F63041C2F2000108681044086033
S31508000DC07047000080B542F20001C4F202010868CB
S31508000DD040F010000860032000F08EF80F2000F0A5
S31508000DE005F800F037F8002080BD000080B582B015
S31508000DF0009040F20000C2F20000006840F20401D0
S31508000E00C2F200010A684FF47A71B1FBF2F1B0FB45
S31508000E10F1F000F0EFFF18B1FFE70120019016E0AE
S31508000E2000980F280DD8FFE700994FF0FF300022F1
S31508000E3000F04AF8009840F20801C2F20001086082
S31508000E4002E00120019002E000200190FFE70198EE
S31508000E5002B080BD83B0FFE741F21800C4F2020079
S31508000E60016841F001010160006800F0010002908C
S31508000E700298FFE7FFE741F21C00C4F2020001688E
S31508000E8041F080510160006800F08050019001989F
S31508000E90FFE7FFE70421C4F2010108680090009803
S31508000EA020F0E0600090009840F0007000900098F4
S31508000EB00860FFE703B0704780B582B001900198DB
S31508000EC005F0D0FA02B080BD80B586B005900491D1
S31508000ED003920020029005F0DBFA02900598019033
S31508000EE002980499039A02F0A9FD0146019805F0B3
S31508000EF0D7FA06B080BD000080B582B0019001988F
S31508000F0005F0ECFA02B080BD80B584B0029001917C
S31508000F10029818B9FFE70120039014E1019842F2FC
S31508000F200001C4F20201096801F00701884215D9D7
S31508000F30FFE742F20000C4F20200016821F007014F
S31508000F40019A11430160006800F007000199884280
S31508000F5003D0FFE701200390F5E0FFE70298007849
S31508000F60800700282AD5FFE702980078400700285E
S31508000F7009D5FFE741F20401C4F20201086840F40A
S31508000F80E0600860FFE7029800780007002809D5A6
S31508000F90FFE741F20401C4F20201086840F4605018
S31508000FA00860FFE741F20401C4F20201086820F074
S31508000FB0F000029A926810430860FFE702980078EA
S31508000FC0C00700285CD0FFE70298406801280DD1C9
S31508000FD0FFE741F20000C4F202000068800300281F
S31508000FE003D4FFE701200390ADE01FE002984068B4
S31508000FF002280DD1FFE741F20000C4F202000068A2
S315080010008001002803D4FFE7012003909BE00CE051
S3150800101041F20000C4F2020000688007002803D4E9
S31508001020FFE7012003908EE0FFE7FFE741F20401A6
S31508001030C4F20201086820F00300029A52681043BD
S315080010400860FFF7ABFE0090FFE741F20400C4F228
S315080010500200006800F00C0002994968B0EB810FA5
S315080010600DD0FFE7FFF79AFE0099401A41F2893141
S31508001070884203D3FFE70320039064E0E5E7FFE730
S31508001080019842F20001C4F20201096801F0070161
S31508001090884215D2FFE742F20000C4F20200016856
S315080010A021F00701019A11430160006800F007006A
S315080010B00199884203D0FFE70120039043E0FFE748
S315080010C002980078400700280CD5FFE741F2040192
S315080010D0C4F20201086820F4E060029AD26810435C
S315080010E00860FFE702980078000700280DD5FFE79B
S315080010F041F20401C4F20201086820F46050029A21
S31508001100126940EAC2000860FFE700F049F841F2B8
S315080011100401C4F202010968C9B20A0947F6301186
S31508001120C0F60001895CC84040F20001C2F2000125
S31508001130086040F20800C2F200000068FFF756FE99
S3150800114000200390FFE7039804B080BD40F200003A
S31508001150C2F200000068704780B5FFF7F7FF41F25A
S315080011600401C4F202010968C1F3022247F64011DC
S31508001170C0F60001895CC84080BD000080B5FFF755
S31508001180E5FF41F20401C4F202010968C1F3C22273
S3150800119047F64011C0F60001895CC84080BD0000D2
S315080011A086B000200590049003900290019041F2C9
S315080011B00400C4F2020000680590059800F00C00CF
S315080011C00146009100283FD0FFE70098042804D084
S315080011D0FFE70098082806D037E041F20020C0F261
S315080011E07A00019037E00598C0F3834147F6481026
S315080011F0C0F60000405C02909DF81600C007C0B11A
S31508001200FFE741F20400C4F202000068C0F340415F
S3150800121047F65810C0F60000405C0490029841F268
S315080012200021C0F27A0148430499B0FBF1F003901B
S3150800123007E0029840F60011C0F23D0148430390CA
S31508001240FFE70398019006E0FFE741F20020C0F2AD
S315080012507A000190FFE7019806B0704780B586B01E
S315080012600490049818B9FFE70120059019E304983B
S315080012700078C007002800F0AB80FFE741F20400C1
S31508001280C4F20200006800F00C00042813D0FFE73F
S3150800129041F20400C4F20200006800F00C000828BD
S315080012A01AD1FFE741F20400C4F202000068C00345
S315080012B0002811D5FFE741F20000C4F202000068D9
S315080012C08003002807D5FFE70498406818B9FFE7A8
S315080012D001200590E5E27AE0FFE704984068B0F55A
S315080012E0803F09D1FFE741F20001C4F20201086814
S315080012F040F48030086032E00498406868B9FFE737
S3150800130041F20001C4F20201086820F48030086046
S31508001310086820F48020086020E004984068B0F54A
S31508001320A02F0DD1FFE741F20001C4F202010868BF
S3150800133040F480200860086840F4803008600CE0BB
S3150800134041F20001C4F20201086820F48030086006
S31508001350086820F480200860FFE7FFE7FFE7FFE75B
S3150800136004984068C8B1FFE7FFF718FD0390FFE748
S3150800137041F20000C4F202000068800300280BD482
S31508001380FFE7FFF70BFD0399401A652803D3FFE72C
S315080013900320059085E2EBE718E0FFF7FFFC0390D2
S315080013A0FFE741F20000C4F202000068800300284B
S315080013B00BD5FFE7FFF7F2FC0399401A652803D31C
S315080013C0FFE7032005906CE2EBE7FFE7FFE7FFE79F
S315080013D0049800788007002840F18A80FFE741F2E8
S315080013E00400C4F20200006810F00C0F13D0FFE7E7
S315080013F041F20400C4F20200006800F00C0008285C
S3150800140028D1FFE741F20400C4F202000068C003D5
S3150800141000281FD4FFE741F20000C4F2020000686A
S315080014208007002808D5FFE704980069012803D03B
S31508001430FFE70120059034E241F20001C4F20201FF
S31508001440086820F0F800049A526940EAC200086069
S31508001450FFE74CE00498006950B3FFE70021C4F2A7
S31508001460422101200860FFF799FC0390FFE741F24B
S315080014700000C4F202000068800700280BD4FFE7CA
S31508001480FFF78CFC0399401A032803D3FFE70320D0
S31508001490059006E2EBE741F20001C4F20201086892
S315080014A020F0F800049A526940EAC20008601DE07C
S315080014B00021C4F2422100200860FFF76FFC039068
S315080014C0FFE741F20000C4F2020000688007002826
S315080014D00BD5FFE7FFF762FC0399401A032803D3ED
S315080014E0FFE703200590DCE1EBE7FFE7FFE7FFE70F
S315080014F0049800780007002846D5FFE70498806915
S3150800150010B3FFE740F28041C4F24221012008608F
S31508001510FFF744FC0390FFE741F22400C4F20200FF
S315080015200068800700280BD4FFE7FFF737FC03990C
S31508001530401A032803D3FFE703200590B1E1EBE740
S31508001540012002F0B3FA1EE040F28041C4F24221C3
S3150800155000200860FFF722FC0390FFE741F2240011
S31508001560C4F202000068800700280BD5FFE7FFF7E2
S3150800157015FC0399401A032803D3FFE703200590B7
S315080015808FE1EBE7FFE7FFE70498007840070028BC
S3150800159040F1D280FFE70020019041F21C00C4F21E
S315080015A002000068C000002812D4FFE7FFE741F2F6
S315080015B01C00C4F20200016841F080510160006815
S315080015C000F0805000900098FFE701200190FFE7A7
S315080015D047F20000C4F200000068C005002821D4C4
S315080015E0FFE747F20001C4F20001086840F4807082
S315080015F00860FFF7D3FB0390FFE747F20000C4F249
S3150800160000000068C00500280BD4FFE7FFF7C6FBFB
S315080016100399401A652803D3FFE70320059040E1A4
S31508001620EBE7FFE7FFE70498C068012809D1FFE761
S3150800163041F22001C4F20201086840F00100086086
S3150800164031E00498C06868B9FFE741F22001C4F2A6
S315080016500201086820F001000860086820F004000C
S3150800166008601FE00498C06805280DD1FFE741F21D
S315080016702001C4F20201086840F004000860086806
S3150800168040F0010008600CE041F22001C4F20201BA
S31508001690086820F001000860086820F00400086067
S315080016A0FFE7FFE7FFE7FFE70498C068D8B1FFE761
S315080016B0FFF774FB0390FFE741F22000C4F2020033
S315080016C00068800700280DD4FFE7FFF767FB03993A
S315080016D0401A41F28931884203D3FFE70320059077
S315080016E0DFE0E9E71AE0FFF759FB0390FFE741F26D
S315080016F02000C4F202000068800700280DD5FFE725
S31508001700FFF74CFB0399401A41F28931884203D30B
S31508001710FFE703200590C4E0E9E7FFE70198012801
S3150800172009D1FFE741F21C01C4F20201086820F062
S3150800173080500860FFE7FFE70498C069002800F0BA
S31508001740AD80FFE741F20400C4F20200006800F031
S315080017500C0008287ED0FFE70498C06902285AD1F1
S31508001760FFE76021C4F2422100200860FFF716FB5C
S315080017700390FFE741F20000C4F20200006880010E
S3150800178000280BD5FFE7FFF709FB0399401A032842
S3150800179003D3FFE70320059083E0EBE70498006A8C
S315080017A0B0F5803F0CD1FFE741F20401C4F2020113
S315080017B0086820F40030049A926810430860FFE72E
S315080017C041F20401C4F20201086820F47410049B73
S315080017D01A6A5B6A1A43104308606021C4F2422100
S315080017E001200860FFF7DAFA0390FFE741F20000EC
S315080017F0C4F202000068800100280BD4FFE7FFF757
S31508001800CDFA0399401A032803D3FFE7032005906E
S3150800181047E0EBE71DE06021C4F2422100200860A2
S31508001820FFF7BCFA0390FFE741F20000C4F202009A
S315080018300068800100280BD5FFE7FFF7AFFA039988
S31508001840401A032803D3FFE70320059029E0EBE7B6
S31508001850FFE722E00498C069012803D1FFE70120C9
S3150800186005901EE041F20400C4F2020000680290EE
S31508001870029800F480300499096A884208D1FFE783
S31508001880029800F470100499496A884203D0FFE769
S315080018900120059005E0FFE7FFE7FFE70020059038
S315080018A0FFE7059806B080BD81B0009001B070478B
S315080018B080B586B00590059800684068049005983C
S315080018C00068806803909DF80C0000F04001002035
S315080018D0B0EB911F11D1FFE70398C00768B1FFE786
S315080018E09DF8100000F040010020B0EB911F04D0D5
S315080018F0FFE70598016C8847D4E09DF80C0000F0D6
S3150800190002010020B0EB510F0BD0FFE79DF8101035
S315080019100020B0EBD11F04D0FFE70598416C88473B
S31508001920C0E09DF80C0000F020010020B0EB511F2C
S315080019300AD1FFE79DF80C0000F040010020B0EB4B
S31508001940911F00F0AF80FFE79DF8100000F020011E
S315080019500020B0EB511F00F0A580FFE79DF80C00B2
S3150800196000F040010020B0EB911F27D0FFE7059853
S31508001970406D032813D0FFE70599886D40F00400F1
S315080019808865FFE70020029005980068C068029005
S3150800199005980068806802900298FFE70DE0FFE767
S315080019A00020019005980068C068019005980068B5
S315080019B0806801900198FFE774E0FFE79DF80C0046
S315080019C000F020010020B0EB511F15D0FFE7059964
S315080019D0886D40F001008865FFE7002000900598B3
S315080019E000688068009005980168086820F0400043
S315080019F008600098FFE7FFE70598806D002850D03B
S31508001A00FFE705980168486820F0E00048600599F6
S31508001A10012048659DF810008007002805D4FFE7D7
S31508001A209DF81000C007B8B3FFE705980168486835
S31508001A3020F0030048600598C06CA0B1FFE7059840
S31508001A40C16C43F6A150C0F6000088630598C06CC7
S31508001A50FEF71EFD30B1FFE70599886D40F040009E
S31508001A608865FFE7FFE70598806CA0B1FFE7059852
S31508001A70816C43F6A150C0F6000088630598806C17
S31508001A80FEF706FD30B1FFE70599886D40F0400086
S31508001A908865FFE7FFE703E00598FFF705FFFFE71F
S31508001AA0FFE7FFE706B080BD80B584B002900298D4
S31508001AB018B9FFE70120039068E00298406A60B908
S31508001AC0FFE702984068B0F5827F01D1FFE703E09F
S31508001AD002990020C861FFE705E002990020086125
S31508001AE002994861FFE70299002088620298406DD2
S31508001AF038B9FFE7029900200865029800F04AF80D
S31508001B00FFE702990220486502980168086820F0F4
S31508001B1040000860029A019211685068D2F808C01D
S31508001B20D36800F482700CF4044C604403F4006338
S31508001B301844136903F002031844536903F00103B8
S31508001B401844936903F400731844D36903F03803FF
S31508001B501844136A03F080031843926A02F4005289
S31508001B60104308600299488B00F004000968486031
S31508001B7002980168C86920F40060C86102990020CB
S31508001B808865029A012151650390FFE7039804B01E
S31508001B9080BD000080B58AB00990002008900790A3
S31508001BA0069005900998006843F20001C4F2010105
S31508001BB088426CD1FFE7FFE741F21800C4F2020041
S31508001BC0016841F480510160006800F48050049077
S31508001BD00498FFE7FFE741F21800C4F20200016823
S31508001BE041F008010160006800F0080003900398BE
S31508001BF0FFE728200590022006900320089040F66B
S31508001C000040C4F2010005A9FEF738FFFFE70421EA
S31508001C10C4F2010108680290029840F0E060029060
S31508001C20029840F00100029002980860FFE740F22F
S31508001C301C30C2F2000001903021C4F2020101609A
S31508001C4010214160002181608022C26001614161EA
S31508001C5081614FF48051C161FEF7E6FD18B1FFE7D7
S31508001C60FEF7D8FBFFE7FFE7099840F21C31C2F2FE
S31508001C700001816409988862FFE72320009000220A
S31508001C801146FFF721F90098FFF716F9FFE70AB0A2
S31508001C9080BD000080B586B004900391ADF80A2097
S31508001CA000200190FFE70498006D012803D1FFE7A3
S31508001CB00220059093E0049901200865FFE7FFE7F5
S31508001CC00498406D012803D0FFE7022001907EE0CA
S31508001CD0039820B1FFE7BDF80A0018B9FFE701200D
S31508001CE0019074E0049903204865049900208865EA
S31508001CF00399049A1163BDF80A10049A9186BDF8EF
S31508001D000A10049AD1860499886304994864049948
S31508001D100864049988870499C88704988068B0F588
S31508001D20004F0DD1FFE704980168086820F04000CD
S31508001D30086004980168086840F480400860FFE776
S31508001D400498816C43F6F550C0F6000008630498C1
S31508001D50816C43F60D60C0F60000C8620498816C79
S31508001D6043F6C150C0F6000048630498816C002011
S31508001D708863049B1A68196B986C0C32DB8EFEF725
S31508001D80A5FD40B1FFE70499886D40F0100088650D
S31508001D90012001901BE004980068006800F04000EC
S31508001DA0402807D0FFE704980168086840F040001B
S31508001DB00860FFE704980168486840F0200048601A
S31508001DC004980168486840F002004860FFE7FFE7AA
S31508001DD0049900200865FFE701980590FFE7059834
S31508001DE006B080BD81B0009001B0704781B0009008
S31508001DF001B0704780B582B00190019802F01EF9D3
S31508001E0002B080BD81B0009001B0704781B00090EB
S31508001E1001B0704785B003900291FFE70398C06B45
S31508001E20012803D1FFE70220049056E00399012018
S31508001E30C863FFE7FFE70399022008640398006870
S31508001E40406801900398006880680090019820F027
S31508001E507000019002980168019808430190019862
S31508001E600399096848600398006842F60041C4F27D
S31508001E700101884218D0FFE703980068B0F1804F47
S31508001E8012D0FFE70398006840F20041C4F200014F
S31508001E90884209D0FFE70398006840F60001C4F2BB
S31508001EA0000188420ED1FFE7009820F080000090DC
S31508001EB002984168009808430090009803990968B9
S31508001EC08860FFE7039901200864FFE7039900206B
S31508001ED0C863FFE700200490FFE7049805B0704741
S31508001EE080B582B00090009818B9FFE701200190EC
S31508001EF031E00098006C38B9FFE700990020C86304
S31508001F00009800F02BF8FFE7009902200864009972
S31508001F1051F8040B02F000F9009901204866FFE722
S31508001F20009901204864009988640099C86400995A
S31508001F300865FFE7FFE7009901204865009988656D
S31508001F400099C86500990866FFE7009901200864AA
S31508001F5000200190FFE7019802B080BD80B586B0E9
S31508001F6005900598006842F60041C4F201018842CE
S31508001F7019D1FFE7FFE741F21800C4F20200016831
S31508001F8041F400610160006800F400600490049860
S31508001F90FFE71920009004210022FEF795FF00981C
S31508001FA0FEF78AFF4AE005980068B0F1804F10D125
S31508001FB0FFE7FFE741F21C00C4F20200016841F0A6
S31508001FC001010160006800F0010003900398FFE733
S31508001FD033E00598006840F20041C4F200018842E7
S31508001FE010D1FFE7FFE741F21C00C4F202000168C6
S31508001FF041F002010160006800F0020002900298B8
S31508002000FFE719E00598006840F60001C4F20001F0
S31508002010884210D1FFE7FFE741F21C00C4F2020034
S31508002020016841F004010160006800F004000190B5
S315080020300198FFE7FFE7FFE7FFE7FFE706B080BD88
S3150800204083B001900198006C012803D0FFE70120B6
S31508002050029045E001990220086401980168C86861
S3150800206040F00100C8600198006842F60041C4F2D9
S315080020700101884218D0FFE701980068B0F1804F47
S3150800208012D0FFE70198006840F20041C4F200014F
S31508002090884209D0FFE70198006840F60001C4F2BB
S315080020A00001884212D1FFE701980068806800F0B5
S315080020B0070000900098062807D0FFE701980168F6
S315080020C0086840F001000860FFE706E0019801682B
S315080020D0086840F001000860FFE700200290FFE76B
S315080020E0029803B07047000080B586B0049003914B
S315080020F000200290FFE70498C06B012803D1FFE790
S3150800210002200590A4E004990120C863FFE7FFE7D1
S315080021100499022008640498006880680190019870
S3150800212020F077000190019820F47F4001900198F3
S31508002130049909688860039800680090002872D09E
S31508002140FFE7009810286ED0FFE7009820286AD08D
S31508002150FFE70098302866D0FFE70098402855D05A
S31508002160FFE70098502837D0FFE70098602840D04E
S31508002170FFE7009870280BD0FFE70098B0F5805F5E
S3150800218005D0FFE70098B0F5005F16D052E054E09E
S3150800219004980068039B5A689968DB6802F050F84F
S315080021A00498006880680190019840F077000190D3
S315080021B001980499096888603FE004980068039BC1
S315080021C05A689968DB6802F03BF8049801688868E1
S315080021D040F48040886030E004980068039A5168AB
S315080021E0D26802F0E9F904980068502102F042F832
S315080021F023E004980068039A5168D26802F004FA4A
S3150800220004980068602102F035F816E00498006822
S31508002210039A5168D26802F0CFF904980068402101
S3150800222002F028F809E0049800680399096802F0A2
S3150800223021F802E001200290FFE7049901200864D2
S31508002240FFE704990020C863FFE702980590FFE7B7
S31508002250059806B080BD000081B0009001B07047B7
S3150800226080B582B0019001980068006900F002010B
S315080022700020B0EB510F28D0FFE701980068C0682E
S3150800228000F002010020B0EB510F1DD0FFE70198C6
S3150800229001686FF00200086101990120C861019880
S315080022A000688069800720B1FFE70198FFF7D4FF2F
S315080022B006E0019800F0DCF9019800F0B7FAFFE7AC
S315080022C001990020C861FFE7FFE7019800680069E7
S315080022D000F004010020B0EB910F29D0FFE7019828
S315080022E00068C06800F004010020B0EB910F1ED012
S315080022F0FFE7019801686FF0040008610199022060
S31508002300C86101980068806910F4407F04D0FFE72F
S315080023100198FFF7A1FF06E0019800F0A9F90198D6
S3150800232000F084FAFFE701990020C861FFE7FFE79C
S3150800233001980068006900F008010020B0EBD10F91
S3150800234028D0FFE701980068C06800F0080100205F
S31508002350B0EBD10F1DD0FFE7019801686FF00800B8
S31508002360086101990420C86101980068C06980075E
S3150800237020B1FFE70198FFF76FFF06E0019800F02C
S3150800238077F9019800F052FAFFE701990020C86131
S31508002390FFE7FFE701980068006900F010010020D8
S315080023A0B0EB111F29D0FFE701980068C06800F05C
S315080023B010010020B0EB111F1ED0FFE7019801683D
S315080023C06FF01000086101990820C861019800683B
S315080023D0C06910F4407F04D0FFE70198FFF73CFF7F
S315080023E006E0019800F044F9019800F01FFAFFE7AB
S315080023F001990020C861FFE7FFE7019800680069B6
S31508002400C00780B1FFE701980068C068C00748B1F7
S31508002410FFE7019801686FF001000861019800F074
S31508002420AFFAFFE7FFE7019800680069C1B200202C
S31508002430B0EBD11F13D0FFE701980068C068C1B29E
S315080024400020B0EBD11F09D0FFE7019801686FF0B3
S31508002450800008610198FFF7D5FCFFE7FFE70198C0
S315080024600068006900F040010020B0EB911F14D00D
S31508002470FFE701980068C06800F040010020B0EB53
S31508002480911F09D0FFE7019801686FF040000861C5
S31508002490019800F0D7FAFFE7FFE70198006800699E
S315080024A000F020010020B0EB511F14D0FFE701987F
S315080024B00068C06800F020010020B0EB511F09D069
S315080024C0FFE7019801686FF0200008610198FFF79F
S315080024D09DFCFFE7FFE702B080BD000080B590B025
S315080024E00F9000200E900D900C900B900F9800689E
S315080024F0B0F1804F4FD1FFE7FFE741F21800C4F271
S315080025000200016841F004010160006800F004005F
S315080025100A900A98FFE7FFE741F21800C4F20200A2
S31508002520016841F008010160006800F008000990A0
S315080025300998FFE703200B90022003900C900E9059
S3150800254040F60000C4F201000BA90491FEF796FAC2
S31508002550039804994FF440620B920C900E9040F643
S315080025600040C4F20100FEF789FAFFE70421C4F22D
S31508002570010108680890089820F4407008900898A7
S3150800258040F0E0600890089840F4007008900898B9
S315080025900860FFE769E00F98006840F20041C4F25E
S315080025A00001884239D1FFE7FFE741F21800C4F27B
S315080025B00200016841F004010160006800F00400AF
S315080025C007900798FFE7FFE741F21800C4F20200F8
S315080025D0016841F008010160006800F008000690F3
S315080025E00698FFE7C0200B90022001900C900E90F1
S315080025F040F60000C4F201000BA90291FEF73EFA6C
S315080026000198029903220B920C900E9040F6004016
S31508002610C4F20100FEF732FA26E00F98006840F689
S315080026200001C4F2000188421DD1FFE7FFE741F22D
S315080026301800C4F20200016841F008010160006850
S3150800264000F0080005900598FFE74FF470700B90AE
S3150800265002200C900E9040F60040C4F201000BA92F
S31508002660FEF70CFAFFE7FFE7FFE710B080BD0000B2
S3150800267081B0009001B0704780B586B00490039190
S31508002680029200200190FFE70498C06B012803D14D
S31508002690FFE70220059084E004990120C863FFE75C
S315080026A0FFE7029800900C2800F270800099DFE896
S315080026B001F0076D6D6D206D6D6D3A6D6D6D530092
S315080026C004980068039901F0EBFD0498016888698D
S315080026D040F00800886104980168886920F00400C1
S315080026E088610398026904980168886910438861BB
S315080026F04FE004980068039901F03AFE04980168CF
S31508002700886940F40060886104980168886920F443
S31508002710806088610398026904980168886940EABC
S315080027200220886135E004980068039901F08CFE60
S3150800273004980168C86940F00800C86104980168EF
S31508002740C86920F00400C861039802690498016802
S31508002750C8691043C8611CE004980068039901F031
S31508002760DFFE04980168C86940F40060C8610498EF
S315080027700168C86920F48060C861039802690498F2
S315080027800168C86940EA0220C86102E00120019098
S31508002790FFE7FFE704990020C863FFE70198059063
S315080027A0FFE7059806B080BD80B582B00090009816
S315080027B018B9FFE70120019031E00098006C38B99C
S315080027C0FFE700990020C863009800F02BF8FFE7A0
S315080027D0009902200864009951F8040B01F09CFC4A
S315080027E0009901204866FFE700990120486400998E
S315080027F088640099C86400990865FFE7FFE70099AF
S3150800280001204865009988650099C8650099086699
S31508002810FFE700990120086400200190FFE701986E
S3150800282002B080BD81B0009001B0704781B00090C1
S3150800283001B0704780B58AB008900791079820B90B
S31508002840FFE70898406C059019E00798042804D11A
S31508002850FFE70898806C04900EE00798082804D1D2
S31508002860FFE70898C06C039003E00898006D039092
S31508002870FFE703980490FFE704980590FFE705989B
S31508002880012803D0FFE70120099075E0079820B9D1
S31508002890FFE70899022048641BE00798042805D139
S315080028A0FFE7089902208864029010E00798082834
S315080028B005D1FFE708990220C864019004E0089949
S315080028C0022008650190FFE701980290FFE7029849
S315080028D0FFE7089800680799012201F095FC089817
S315080028E0006842F60041C4F20101884207D1FFE7B9
S315080028F008980168486C40F400404864FFE7089867
S31508002900006842F60041C4F20101884218D0FFE788
S3150800291008980068B0F1804F12D0FFE70898006861
S3150800292040F20041C4F20001884209D0FFE7089846
S31508002930006840F60001C4F20001884212D1FFE7A0
S3150800294008980068806800F0070006900698062830
S3150800295007D0FFE708980168086840F0010008609A
S31508002960FFE706E008980168086840F0010008607B
S31508002970FFE700200990FFE709980AB080BD00002C
S3150800298080B586B005900598006842F60041C4F205
S315080029900101884254D1FFE740F27201C2F20001F8
S315080029A008880130088040F27401C2F200010888E4
S315080029B00130088040F27001C2F200010888013037
S315080029C0088040F27601C2F20001088801300880CA
S315080029D040F20030C2F2000002F036FD40F28C00F0
S315080029E0C2F20000039003F03BFC039803F0E8FCF6
S315080029F000208DF81300FFE79DF8130003281CDC60
S31508002A00FFE79DF8131040F23872C2F200020192F5
S31508002A10E820029001FB002003F062F9019A02986F
S31508002A209DF8131001FB002002F018FEFFE79DF841
S31508002A30130001308DF81300DEE702F01DFCFFE7F6
S31508002A4006B080BD81B0009001B0704782B0019099
S31508002A50ADF8021002B0704780B584B0039000202C
S31508002A600290039800684069C0B2C00902900398B2
S31508002A70406C212823D1FFE7029800B3FFE7FFE760
S31508002A80FFE70398006850E8050F20F080000190E2
S31508002A90FFE701990398026842E805100028F0D17B
S31508002AA0FFE7FFE70398806B28B1FFE70398806B81
S31508002AB0FDF7B8FCFFE7039801F00CFFFFE7039862
S31508002AC000684069C0F3801002900398806C222841
S31508002AD023D1FFE7029800B3FFE7FFE7FFE7039874
S31508002AE0006850E8050F20F040000090FFE70099C5
S31508002AF00398026842E805100028F0D1FFE7FFE7CF
S31508002B000398C06B28B1FFE70398C06BFDF78AFCF2
S31508002B10FFE7039801F082FEFFE7002004B080BDBE
S31508002B2081B0009001B0704780B592B011901198AD
S31508002B3000680068109011980068C0680F90119896
S31508002B40006840690E9000200D900C90109800F0D7
S31508002B500F000D900D9888B9FFE79DF84000800694
S31508002B6000280AD5FFE79DF83C008006002804D512
S31508002B70FFE7119801F0C8FEE7E1FFE70D98002886
S31508002B8000F0C280FFE79DF83800C00738B9FFE7B4
S31508002B90BDF83C0010F4907F00F0B680FFE79DF882
S31508002BA04000C00758B1FFE79DF83D00C00730B1A7
S31508002BB0FFE71199C86C40F00100C864FFE79DF86B
S31508002BC04000400700280BD5FFE79DF83800C007EE
S31508002BD030B1FFE71199C86C40F00200C864FFE7FE
S31508002BE09DF84000800700280BD5FFE79DF83800C0
S31508002BF0C00730B1FFE71199C86C40F00400C864FB
S31508002C00FFE79DF840000007002811D5FFE79DF86B
S31508002C103C008006002805D4FFE79DF83800C00769
S31508002C2030B1FFE71199C86C40F00800C864FFE7A7
S31508002C301198C06C002866D0FFE79DF84000800612
S31508002C4000280AD5FFE79DF83C008006002804D531
S31508002C50FFE7119801F058FEFFE7119800684069F0
S31508002C60C0F380100C901198C06C0007002804D49B
S31508002C70FFE70C9800283ED0FFE7119801F0CEFD3B
S31508002C80119800684069400600282FD5FFE7FFE73E
S31508002C90FFE71198006850E8050F20F040000B90F8
S31508002CA0FFE70B991198026842E805100028F0D151
S31508002CB0FFE7FFE71198C06B98B1FFE71198C16B62
S31508002CC044F25D60C0F6000088631198C06BFDF79A
S31508002CD0DFFB28B1FFE71198C06B816B8847FFE7D8
S31508002CE003E01198FFF71CFFFFE703E01198FFF7D1
S31508002CF017FFFFE706E01198FFF712FF119900206A
S31508002D00C864FFE7FFE720E11198006B012840F04F
S31508002D10FC80FFE79DF84000C006002840F1F580DA
S31508002D20FFE79DF83C00C006002840F1EE80FFE76B
S31508002D30FFE700200A901198006800680A90119829
S31508002D40006840680A900A98FFE711980068406989
S31508002D504006002840F18080FFE71198C06B0068A4
S31508002D604068ADF82600BDF82600002873D0FFE7B6
S31508002D70BDF826001199898D88426CDAFFE7BDF8FF
S31508002D8026001199C8851198C06B8069202857D0EC
S31508002D90FFE7FFE7FFE71198006850E8030F20F404
S31508002DA080700890FFE708991198026842E80310B6
S31508002DB00028F0D1FFE7FFE7FFE7FFE71198006873
S31508002DC050E8050F20F001000790FFE707991198D2
S31508002DD0026842E805100028F0D1FFE7FFE7FFE7A1
S31508002DE0FFE71198006850E8050F20F040000690AC
S31508002DF0FFE706991198026842E805100028F0D105
S31508002E00FFE7FFE7119920208864119900200863DD
S31508002E10FFE7FFE71198006850E8030F20F010005D
S31508002E200590FFE705991198026842E80310002803
S31508002E30F0D1FFE7FFE71198C06BFDF7F3FAFFE75C
S31508002E401199022048631198818DC28D891A89B219
S31508002E50FFF7FCFDFFE778E01199888DC98D401AC8
S31508002E60ADF812001198C08D00284DD0FFE7BDF8C7
S31508002E701200002848D0FFE7FFE7FFE7119800682F
S31508002E8050E8030F20F490700390FFE70399119818
S31508002E90026842E803100028F0D1FFE7FFE7FFE7E2
S31508002EA0FFE71198006850E8050F20F0010002902E
S31508002EB0FFE702991198026842E805100028F0D148
S31508002EC0FFE7FFE71199202088641199002008631D
S31508002ED0FFE7FFE71198006850E8030F20F010009D
S31508002EE00190FFE701991198026842E8031000284B
S31508002EF0F0D1FFE7FFE71199022048631198BDF862
S31508002F001210FFF7A3FDFFE71FE09DF8400000063B
S31508002F1000280AD5FFE79DF83C000006002804D5DE
S31508002F20FFE7119801F084FE0FE09DF84000400687
S31508002F3000280AD5FFE79DF83C004006002804D57E
S31508002F40FFE7119801F0B4FCFFE712B080BD00005E
S31508002F5080B582B00090009818B9FFE7012001906B
S31508002F603AE00098806908B1FFE700E0FFE70098BB
S31508002F70406C38B9FFE7009900200864009800F013
S31508002F802FF8FFE700992420486400980168C8686C
S31508002F9020F40050C860009801F066FD00980168AA
S31508002FA0086920F49040086100980168486920F093
S31508002FB02A00486100980168C86840F40050C86053
S31508002FC000990020C864009A20215164009A9164EF
S31508002FD0009948630190FFE7019802B080BD0000A0
S31508002FE080B594B0139000201290119010900F9015
S31508002FF01398006843F60001C4F20101884240F0C4
S315080030008B80FFE7FFE741F21800C4F2020001686F
S3150800301041F480410160006800F480400E900E98EB
S31508003020FFE7FFE741F21800C4F20200016841F029
S3150800303004010160006800F004000D900D98FFE798
S315080030404FF400700F90022010900320129040F663
S315080030500000C4F2010007900FA90891FDF70EFDC4
S31508003060079808994FF480620F92002209921092ED
S315080030701192FDF703FD099940F26430C2F200008F
S315080030800A905822C4F202020260416081608022DE
S31508003090C260016141618161C161FDF7C5FB18B17B
S315080030A0FFE7FDF7B7F9FFE7FFE7139840F264314A
S315080030B0C2F20001C16313988862FFE740F2AC30A0
S315080030C0C2F2000006904421C4F2020101601021F8
S315080030D04160002181608022C26001614161816195
S315080030E0C161FDF7A1FB18B1FFE7FDF793F9FFE70B
S315080030F0FFE7139840F2AC31C2F2000181631398DE
S315080031008862FFE72520059005210022FDF7DCFEF1
S315080031100598FDF7D1FE6FE01398006844F2004168
S31508003120C4F20001884266D1FFE7FFE741F21C00BE
S31508003130C4F20200016841F400310160006800F43D
S3150800314000300C900C98FFE7FFE741F21800C4F234
S315080031500200016841F004010160006800F0040003
S315080031600B900B98FFE704200F9002201090032085
S31508003170129040F60000C4F2010001900FA90291D6
S31508003180FDF77CFC0198029908220F92002203920F
S3150800319010921192FDF772FC039940F2F430C2F2D4
S315080031A0000004906C22C4F2020202604160816051
S315080031B08022C2600161416181614FF40051C161A1
S315080031C0FDF732FB18B1FFE7FDF724F9FFE7FFE744
S315080031D0139840F2F431C2F20001C1631398886271
S315080031E0FFE72620009005210022FDF76DFE0098D6
S315080031F0FDF762FEFFE7FFE714B080BD80B584B037
S3150800320002900191ADF802200298806C202815D111
S31508003210FFE7019820B1FFE7BDF8020018B9FFE7FC
S31508003220012003900DE00299002008630298019995
S31508003230BDF8022001F076FC039002E0022003901C
S31508003240FFE7039804B080BD81B0009001B07047D5
S3150800325081B0009001B0704781B0009001B070470E
S31508003260FFE7FEE784B0039002910192009302986B
S315080032700399086101980399886000980399C860C2
S3150800328004B0704780B582B040F20030C2F2000048
S3150800329002F0D8F900208DF80700FFE79DF807002F
S315080032A0032813DCFFE79DF8070000EB400140F216
S315080032B0D860C2F2000000EBC10003F08BF9FFE70B
S315080032C09DF8070001308DF80700E7E702F0A2F83D
S315080032D000F0A0FB01F03CFD01F0BAFD01F008FF8B
S315080032E0082000F079FC01F0ABFD02B080BD0000BB
S315080032F083B0029040F20030C2F2000000880299C2
S315080033008A68801A086002980068C0B1FFE70298C8
S315080033100068012804DBFFE702980068019004E0D2
S315080033200298006840420190FFE7019802990969EE
S31508003330884204DAFFE70299002008601AE0029939
S3150800334008680969884206DBFFE7029908680A697E
S31508003350801A08600DE0029908680969494288429E
S3150800336006DCFFE7029908680A6910440860FFE767
S31508003370FFE7FFE740F20030C2F20000008802993A
S31508003380CA68801A486002984068C0B1FFE7029888
S315080033904068012804DBFFE702984068009004E0D3
S315080033A00298406840420090FFE700980299096930
S315080033B0884204DAFFE70299002048601AE0029979
S315080033C048680969884206DBFFE7029948680A697E
S315080033D0801A48600DE0029948680969494288429E
S315080033E006DCFFE7029948680A6910444860FFE767
S315080033F0FFE7FFE703B0704780B588B0FFE741F203
S315080034001400C4F20200016841F00101016000687D
S3150800341000F0010007900798FFE70D2001900022B1
S3150800342005921146FDF750FD0198FDF745FD059AF1
S315080034300E20029005210491FDF746FD0298FDF73E
S315080034403BFD0499059A0F200390FDF73DFD03986F
S31508003450FDF732FD0499059A10200690FDF734FD14
S315080034600698FDF729FD08B080BD000080B58EB02E
S3150800347000200D900C900B900A90FFE741F218007F
S31508003480C4F20200016841F020010160006800F002
S31508003490200009900998FFE7FFE741F21800C4F2F7
S315080034A00200016841F004010160006800F00400B0
S315080034B008900898FFE7FFE741F21800C4F20200F7
S315080034C0016841F008010160006800F008000790F3
S315080034D00798FFE74FF480400A900020C1F23100B8
S315080034E000900B90012001900C9040F60040C4F229
S315080034F001000AA90291FDF7C1FA009A01980299FA
S315080035004FF4C8530A930B920C9040F60000C4F28D
S315080035100100FDF7B3FA1720039007210491002252
S315080035200592FDF7D1FC0398FDF7C6FC0499059AA8
S3150800353028200690FDF7C8FC0698FDF7BDFC0EB0DE
S3150800354080BD000080B582B040F23C40C2F2000067
S31508003550019043F20001C4F2010101604FF4827147
S31508003560416000218160C16002220261012242613C
S315080035704FF4007282611022C26101624162816267
S315080035800A21C162FEF790FA18B1FFE7FCF742FF7D
S31508003590FFE702B080BD000080B588B00021009129
S315080035A007910691059104910391029140F2984082
S315080035B0C2F20000019042F60042C4F20102026023
S315080035C040F2CF224260816040F2E732C260016178
S315080035D0416180218161FEF783FC18B1FFE7FCF7A2
S315080035E019FFFFE74FF48050049040F29840C2F26A
S315080035F0000004A9FEF778FD18B1FFE7FCF70AFFFB
S31508003600FFE700200290039040F29840C2F20000C3
S3150800361002A9FEF7FFFB18B1FFE7FCF7FBFEFFE781
S3150800362008B080BD80B58EB0002100910D910C9137
S315080036300B910A91099108910791069105910491B8
S3150800364003910291019140F20050C2F200004FF03E
S31508003650804202604160816040F60F62C26001618B
S315080036608161FEF73DFC18B1FFE7FCF7D3FEFFE7E3
S315080036704FF480500A9040F20050C2F200000AA9A6
S31508003680FEF732FD18B1FFE7FCF7C4FEFFE740F28C
S315080036900050C2F20000FFF787F818B1FFE7FCF701
S315080036A0B9FEFFE700200890099040F20050C2F2E8
S315080036B0000008A9FEF7AEFB18B1FFE7FCF7AAFE63
S315080036C0FFE760200190002202920392059240F2E1
S315080036D00050C2F2000001A9FEF7CEFF18B1FFE7BD
S315080036E0FCF798FEFFE740F20050C2F2000001A97D
S315080036F00422FEF7C1FF18B1FFE7FCF78BFEFFE7D0
S3150800370040F20050C2F2000001A90822FEF7B4FFF9
S3150800371018B1FFE7FCF77EFEFFE740F20050C2F261
S31508003720000001A90C22FEF7A7FF18B1FFE7FCF776
S3150800373071FEFFE740F20050C2F20000FEF7CEFE2F
S315080037400EB080BD80B58EB0002100910D910C9110
S315080037500B910A9109910891079106910591049197
S3150800376003910291019140F26850C2F2000040F2C2
S315080037700042C4F2000202604160816040F60F62B6
S31508003780C26001618161FEF7ABFB18B1FFE7FCF788
S3150800379041FEFFE74FF480500A9040F26850C2F2AB
S315080037A000000AA9FEF7A0FC18B1FFE7FCF732FEF5
S315080037B0FFE740F26850C2F20000FEF7F5FF18B1C5
S315080037C0FFE7FCF727FEFFE700200890099040F284
S315080037D06850C2F2000008A9FEF71CFB18B1FFE703
S315080037E0FCF718FEFFE76020019000220292039280
S315080037F0059240F26850C2F2000001A9FEF73CFFAC
S3150800380018B1FFE7FCF706FEFFE740F26850C2F280
S31508003810000001A90422FEF72FFF18B1FFE7FCF705
S31508003820F9FDFFE740F26850C2F2000001A908223C
S31508003830FEF722FF18B1FFE7FCF7ECFDFFE740F2C1
S315080038406850C2F2000001A90C22FEF715FF18B154
S31508003850FFE7FCF7DFFDFFE740F26850C2F2000021
S31508003860FEF73CFE0EB080BD80B58EB000210091FB
S315080038700D910C910B910A91099108910791069166
S315080038800591049103910291019140F2D050C2F240
S31508003890000040F60002C4F20002026047224260BD
S315080038A0816044F61F62C260016180218161FEF772
S315080038B017FB18B1FFE7FCF7ADFDFFE74FF48050A3
S315080038C00A9040F2D050C2F200000AA9FEF70CFC9A
S315080038D018B1FFE7FCF79EFDFFE740F2D050C2F2B1
S315080038E00000FEF761FF18B1FFE7FCF793FDFFE75D
S315080038F000200890099040F2D050C2F2000008A9B2
S31508003900FEF788FA18B1FFE7FCF784FDFFE76020A9
S315080039100190002202920392059240F2D050C2F220
S31508003920000001A9FEF7A8FE18B1FFE7FCF772FD33
S31508003930FFE740F2D050C2F2000001A90422FEF7C8
S315080039409BFE18B1FFE7FCF765FDFFE740F2D05094
S31508003950C2F2000001A90822FEF78EFE18B1FFE7A1
S31508003960FCF758FDFFE740F2D050C2F2000001A96B
S315080039700C22FEF781FE18B1FFE7FCF74BFDFFE7C7
S3150800398040F2D050C2F20000FEF7A8FD0EB080BD8E
S3150800399080B582B040F23860C2F20000019043F66A
S315080039A00001C4F2010101604FF4E13141600021D8
S315080039B08160C16001610C2242618161C161FFF7CA
S315080039C0C7FA18B1FFE7FCF725FDFFE702B080BD8F
S315080039D080B582B040F28860C2F20000019044F2DD
S315080039E00041C4F2000101604FF4E1314160002159
S315080039F08160C16001610C2242618161C161FFF78A
S31508003A00A7FA18B1FFE7FCF705FDFFE702B080BD8E
S31508003A10FFE7FEE780B540F28860C2F20000026860
S31508003A20D16841F01001D16040F60941C2F20001A7
S31508003A302422FFF7E3FB80BDFFE7FEE788B0079087
S31508003A4006910592079800F0070004900498C0F1C3
S31508003A500700052803D3FFE70420019004E0049833
S31508003A60C0F107000190FFE701980390049804301D
S31508003A70062803D8FFE70020009003E004980338DF
S31508003A800090FFE70098029006980399012202FA2F
S31508003A9001F101390840029B984005999A40013A7C
S31508003AA01140084308B070477047000082B0019083
S31508003AB0019840F20001C2F200010968C90844F6FB
S31508003AC0D352C1F26202A1FB022189094843009040
S31508003AD0FFE700BFFFE70098411E00910028F8D1D4
S31508003AE0FFE702B07047000080B584B08DF80F007C
S31508003AF09DF80F0001286DDBFFE79DF80F001E28D3
S31508003B0068DCFFE700200290FFE702989DF80F1097
S31508003B1088425EDAFFE7029800EB400140F2A8000F
S31508003B20C2F20000014449788DF80C10029901EBA5
S31508003B304101415C8DF80D10029901EB41010844E1
S31508003B4080788DF80E0000200190FFE7019807287D
S31508003B5034DCFFE79DF80C0000F0010147F65A1027
S31508003B60C0F60000425C019B40F20211C2F200015D
S31508003B70CB1ADA719DF80D2002F00102825C019BD6
S31508003B80CB1ADA739DF80E2002F00102805C019AC6
S31508003B90891AC8759DF80C0040088DF80C009DF828
S31508003BA00D0040088DF80D009DF80E0040088DF8B0
S31508003BB00E00FFE7019801300190C7E740F20210B6
S31508003BC0C2F2000000F092F9FFE702980130029075
S31508003BD09BE7FFE704B080BD80B582B0ADF806006C
S31508003BE000208DF80500FFE79DF80500BDF80610D2
S31508003BF0884213DAFFE79DF80500C8218DF8021000
S31508003C004FF47F41ADF80010009900F00DF8FFE77A
S31508003C109DF8050001308DF80500E5E79DF80600DA
S31508003C20FFF762FF02B080BD83B001919DF80610D0
S31508003C308DF80A10BDF80410ADF808108DF80300C9
S31508003C409DF803001D281CDCFFE79DF809009DF878
S31508003C50031001EB410240F2A801C2F200010A4436
S31508003C6050709DF808009DF8032002EB4202885424
S31508003C709DF80A009DF8032002EB42021144887061
S31508003C80FFE703B07047000083B0029040F20030AF
S31508003C90C2F20000808802998A68801A0860029831
S31508003CA00068C0B1FFE702980068012804DBFFE757
S31508003CB002980068019004E002980068404201906A
S31508003CC0FFE7019802990969884204DAFFE7029931
S31508003CD0002008601AE0029908680969884206DB2C
S31508003CE0FFE7029908680A69801A08600DE00299D8
S31508003CF0086809694942884206DCFFE702990868AC
S31508003D000A6910440860FFE7FFE7FFE740F2003062
S31508003D10C2F20000C0880299CA68801A48600298F0
S31508003D204068C0B1FFE702984068012804DBFFE756
S31508003D3002984068009004E002984068404200906B
S31508003D40FFE7009802990969884204DAFFE70299B1
S31508003D50002048601AE0029948680969884206DB2B
S31508003D60FFE7029948680A69801A48600DE00299D7
S31508003D70486809694942884206DCFFE702994868AB
S31508003D800A6910444860FFE7FFE7FFE703B070479A
S31508003D9080B540F23C40C2F20000FDF789FD80BDC7
S31508003DA080B582B001900198806A00900099002041
S31508003DB0C8870099C8860098FDF776FD02B080BDD1
S31508003DC080B582B001900198806A009000980168D9
S31508003DD0486820F0030048600099886D40F010009C
S31508003DE088650099012048650098FDF75DFD02B0D9
S31508003DF080BD000080B582B001900198806A00906D
S31508003E000098FDF7F3FF02B080BD000080B584B0CE
S31508003E1003900398806A0290FCF7C0FF019003980C
S31508003E200068006800F0200020283AD0FFE70298D2
S31508003E300168486820F020004860029801684868D0
S31508003E4020F0020048600298019A642100F030F8D8
S31508003E5030B1FFE70299886D40F020008865FFE7DA
S31508003E600298806870B9FFE7FFE700200090029883
S31508003E700068C06800900298006880680090009802
S31508003E80FFE7FFE702990020C886029901204865E6
S31508003E900298806D20B1FFE70298FDF705FD04E062
S31508003EA0FFE70298FDF79EFFFFE704B080BD00001C
S31508003EB080B586B00490039102920498039B0299F8
S31508003EC06A4611608021002200F028F840B1FFE719
S31508003ED00499886D40F0200088650320059002E06B
S31508003EE000200590FFE7059806B080BD80B582B032
S31508003EF00190FFE740F21C30C2F20000FCF750FBCD
S31508003F00012801D0FFE7F5E7019940F23C40C2F2EB
S31508003F1000001822FDF7BEFE02B080BD80B58AB04B
S31508003F20DDF830C008900791069205930598019030
S31508003F30FCF734FF024601980C99891A0844039045
S31508003F40FCF72CFF0290039840F20001C2F2000130
S31508003F500968C1F3CB3148430490FFE70898006825
S31508003F60806807990840401AB0FA80F04009069917
S31508003F7088425BD0FFE705980130002855D0FFE757
S31508003F80FCF70CFF0299401A0399884204D2FFE70E
S31508003F90039800283FD1FFE708980168486820F091
S31508003FA0E000486008984068B0F5827F13D1FFE7C3
S31508003FB008988068B0F5004F06D0FFE70898806833
S31508003FC0B0F5806F07D1FFE708980168086820F008
S31508003FD040000860FFE70898806AB0F5005F0FD1D7
S31508003FE0FFE7FFE708980168086820F400500860B2
S31508003FF008980168086840F400500860FFE7FFE782
S31508004000089901204865FFE7089900200865FFE739
S31508004010032009900DE0049818B9FFE700200390E3
S31508004020FFE7049801380490FFE797E70020099016
S31508004030FFE709980AB080BD7047000080B582B0D6
S31508004040009000980138B0F1807F03D3FFE7012084
S31508004050019019E0009801384EF21401CEF20001E1
S3150800406008604FF0FF300F2102F01AFA4EF21801DD
S31508004070CEF20001002008604EF21002CEF20002D5
S31508004080072111600190FFE7019802B080BD00008A
S3150800409080B5FCF789FE80BD80B590B006A8009073
S315080040A02821FCF7E5F80098002305930493039369
S315080040B002930193012206924FF4803107910893E7
S315080040C00A9202220D920E914FF4E0110F91FDF71C
S315080040D0C5F818B1FFE7FCF79DF9FFE70F20019037
S315080040E002210291002003904FF480620492059009
S315080040F001A8FCF709FF18B1FFE7FCF78BF9FFE702
S3150800410010B080BD7047000080B540F29840C2F2FA
S315080041100000FEF7A5F880BD83B0029001910298D1
S3150800412000680090029842F60041C4F201018842F4
S3150800413015D0FFE70298B0F1804F10D0FFE702983C
S3150800414040F20041C4F20001884208D0FFE7029815
S3150800415040F60001C4F2000188420AD1FFE7009840
S3150800416020F070000090019841680098084300907C
S31508004170FFE7029842F60041C4F20101884215D0D1
S31508004180FFE70298B0F1804F10D0FFE7029840F29F
S315080041900041C4F20001884208D0FFE7029840F6C1
S315080041A00001C4F2000188420AD1FFE7009820F412
S315080041B0407000900198C168009808430090FFE796
S315080041C0009820F0800001994969084300900098FA
S315080041D002990860019880680299C8620198006887
S315080041E002998862029842F60041C4F201018842A7
S315080041F005D1FFE70198006902990863FFE702996C
S315080042000120486103B0704784B00390029101927F
S31508004210029800F01F01012088400090009A039937
S31508004220086A904308620198029901F01F0100FA92
S3150800423001F20399086A1043086204B07047000047
S3150800424085B00490039102920193049880680090C7
S31508004250009820F47F40009003980299019A41EA59
S315080042600221014300980843009000980499886049
S3150800427005B0704783B0029001910298806800905B
S31508004280009820F07000009001980099084340F0CB
S315080042900700009000980299886003B070470000F4
S315080042A085B0049003910498006A01900499086AFD
S315080042B020F001000862049840680090049880691C
S315080042C00290029820F070000290029820F00300F5
S315080042D0029003980168029808430290019820F01A
S315080042E00200019003988168019808430190049898
S315080042F042F60041C4F2010188420ED1FFE7019857
S3150800430020F0080001900398C168019808430190BD
S31508004310019820F004000190FFE7049842F6004156
S31508004320C4F20101884213D1FFE7009820F4807097
S315080043300090009820F40070009003984169009856
S315080043400843009003988169009808430090FFE7A6
S31508004350009804994860029804998861039840680F
S315080043600499486301980499086205B070470000EB
S3150800437085B0049003910498006A01900499086A2C
S3150800438020F010000862049840680090049880693C
S315080043900290029820F4E0400290029820F44070BF
S315080043A0029003980168029840EA01200290019859
S315080043B020F02000019003988168019840EA0110D6
S315080043C00190049842F60041C4F2010188420FD1D7
S315080043D0FFE7019820F0800001900398C1680198D2
S315080043E040EA01100190019820F040000190FFE793
S315080043F0049842F60041C4F20101884215D1FFE74C
S31508004400009820F480600090009820F400600090E6
S3150800441003984169009840EA8100009003988169F1
S31508004420009840EA81000090FFE7009804994860E8
S3150800443002980499886103984068049988630198EA
S315080044400499086205B0704785B0049003910498F2
S31508004450006A01900499086A20F48070086204983A
S31508004460406800900498C0690290029820F0700095
S315080044700290029820F003000290039801680298BF
S3150800448008430290019820F400700190039881680F
S31508004490019840EA01200190049842F60041C4F2CE
S315080044A0010188420FD1FFE7019820F400600190CE
S315080044B00398C168019840EA01200190019820F408
S315080044C080600190FFE7049842F60041C4F20101BA
S315080044D0884215D1FFE7009820F480500090009894
S315080044E020F40050009003984169009840EA0110B2
S315080044F0009003988169009840EA01100090FFE750
S3150800450000980499486002980499C861039840681D
S315080045100499C86301980499086205B070470000B9
S3150800452085B0049003910498006A01900499086A7A
S3150800453020F4805008620498406800900498C06986
S315080045400290029820F4E0400290029820F440700D
S31508004550029003980168029840EA012002900198A7
S3150800456020F40050019003988168019840EA0130D0
S315080045700190049842F60041C4F2010188420BD129
S31508004580FFE7009820F4804000900398416900985E
S3150800459040EA81100090FFE7009804994860029865
S315080045A00499C861039840680499086401980499B5
S315080045B0086205B07047000085B004900391029226
S315080045C00498006A00900499086A20F001000862BD
S315080045D0049880690190019820F0F00001900299F2
S315080045E0019840EA01100190009820F00A00009016
S315080045F003990098084300900198049988610098E7
S315080046000499086205B0704785B004900391029238
S315080046100498006A00900499086A20F0100008625D
S31508004620049880690190019820F4704001900299DD
S31508004630019840EA01300190009820F0A00000900F
S315080046400399009840EA011000900198049988613E
S3150800465000980499086205B07047000080B582B0DA
S3150800466001900198806A009000990020C8850099F9
S31508004670C8840098FEF754FA02B080BD80B584B0AD
S315080046800390002002900398806A019001980068C0
S315080046904069C0B2C00902900198406C21280AD12D
S315080046A0FFE7029838B1FFE701990020C88401980E
S315080046B000F010F9FFE7019800684069C0F3801020
S315080046C002900198806C22280AD1FFE7029838B137
S315080046D0FFE701990020C885019800F09FF8FFE7D9
S315080046E00199C86C40F01000C8640198FEF718FAE2
S315080046F004B080BD80B586B005900598806A0490A0
S315080047000598006800688006002859D4FFE70499D0
S315080047100020C885FFE7FFE70498006850E8030F04
S3150800472020F480700390FFE703990498026842E832
S3150800473003100028F0D1FFE7FFE7FFE7FFE704983B
S31508004740006850E8050F20F001000290FFE7029983
S315080047500498026842E805100028F0D1FFE7FFE751
S31508004760FFE7FFE70498006850E8050F20F04000CF
S315080047700190FFE701990498026842E805100028AD
S31508004780F0D1FFE7FFE70499202088640498006BBE
S31508004790012814D1FFE7FFE7FFE70498006850E80F
S315080047A0030F20F010000090FFE7009904980268B4
S315080047B042E803100028F0D1FFE7FFE7FFE7FFE72D
S315080047C00499002048630498006B012805D1FFE787
S315080047D00498818DFEF73AF903E00498FEF734FD54
S315080047E0FFE706B080BD000080B582B00190019851
S315080047F0806A00900099012048630098006B0128A0
S3150800480006D1FFE70098818D4908FEF71FF903E0F6
S315080048100098FEF71DFDFFE702B080BD84B0039047
S31508004820FFE7FFE70398006850E8030F20F490704D
S315080048300290FFE702990398026842E803100028ED
S31508004840F0D1FFE7FFE7FFE7FFE70398006850E8C6
S31508004850050F20F001000190FFE70199039802680F
S3150800486042E805100028F0D1FFE7FFE70398006B40
S31508004870012814D1FFE7FFE7FFE70398006850E82F
S31508004880030F20F010000090FFE7009903980268D4
S3150800489042E803100028F0D1FFE7FFE7FFE7039996
S315080048A02020886403990020086304B0704700003C
S315080048B080B582B0019001980168C86820F0400070
S315080048C0C8600199202048640198FEF7C5FC0020BD
S315080048D002B080BD82B00190FFE7FFE7019800684B
S315080048E050E8030F20F0C0000090FFE700990198F8
S315080048F0026842E803100028F0D1FFE7FFE70199B4
S315080049002020486402B0704780B586B004900498A9
S31508004910806C222840F0A180FFE704988068B0F5F3
S31508004920805F15D1FFE70498006988B9FFE7002082
S3150800493003900498806A02900498006840686FF3B0
S315080049405F20029908800499886A0230886225E007
S315080049500498806A03900020029004988068B0F555
S31508004960805F08D0FFE70498806850B9FFE704988D
S31508004970006930B9FFE70498006840680399087031
S3150800498007E004980068406800F07F000399087003
S31508004990FFE70499886A01308862FFE70499C88DA1
S315080049A00138C8850004002854D1FFE70498016837
S315080049B0C86820F02000C86004980168C86820F418
S315080049C08070C86004980168486920F00100486151
S315080049D00499202088640499002048630498006B91
S315080049E0012830D1FFE7049900200863FFE7FFE7B5
S315080049F00498006850E8030F20F010000190FFE7C4
S31508004A0001990498026842E803100028F0D1FFE7EC
S31508004A10FFE7049800680068C00600280ED5FFE77F
S31508004A20FFE700200090049800680068009004984A
S31508004A300068406800900098FFE7FFE70498818DBA
S31508004A40FEF704F803E00498FEF7FEFBFFE70020F4
S31508004A50059005E00020059002E002200590FFE79A
S31508004A60059806B080BD000080B584B00390039811
S31508004A700068006920F44050039A1168D268104310
S31508004A800861039988680A694969104308430290CE
S31508004A9003980068C06841F20C618843029908438C
S31508004AA003990968C86003980068406920F4407053
S31508004AB0039A11689269104348610398006843F69F
S31508004AC00001C4F20101884204D1FFE7FCF756FB56
S31508004AD0019003E0FCF740FB0190FFE701981921DC
S31508004AE04843039A116852689200B0FBF2FC48F2F8
S31508004AF01F52C5F2EB12ACFB02304309642003FBDC
S31508004B0010CC322000EB0C10A0FB0202F02000EAC9
S31508004B10521000EB0310C2F343121044886004B02D
S31508004B2080BD000080B588B007900691ADF81620C4
S31508004B30069807998862BDF8160007998885079927
S31508004B400020C864079A222191640799CA6B44F227
S31508004B50F561C0F60001D1620799CA6B44F2E971A2
S31508004B60C0F6000111630799CA6B44F27D61C0F66D
S31508004B70000151630799C96B886306A804900798D2
S31508004B800168C06B0431049A1268BDF81630FBF749
S31508004B909DFEFFE7002003900798006800680390D1
S31508004BA007980068406803900398FFE7079800692C
S31508004BB0A0B1FFE7FFE7FFE70798006850E8030F93
S31508004BC040F480700290FFE702990798026842E86D
S31508004BD003100028F0D1FFE7FFE7FFE7FFE7FFE74D
S31508004BE00798006850E8050F40F001000190FFE7BC
S31508004BF001990798026842E805100028F0D1FFE7F6
S31508004C00FFE7FFE7FFE70798006850E8050F40F061
S31508004C1040000090FFE700990798026842E80510EF
S31508004C200028F0D1FFE7FFE7002008B080BD0000AC
S31508004C3083B001900198406C212839D1FFE701988B
S31508004C408068B0F5805F13D1FFE70198006978B9ED
S31508004C50FFE70198006A0090009800886FF35F20CC
S31508004C600199096848600199086A0230086208E0F3
S31508004C70019A106A411C1162007801990968486016
S31508004C80FFE70199C88C0138C884000468B9FFE7B2
S31508004C9001980168C86820F08000C860019801681A
S31508004CA0C86840F04000C860FFE70020029002E0B4
S31508004CB002200290FFE7029803B0704780B584B0DF
S31508004CC00020039040F28860C2F200000068006885
S31508004CD0C0F300100390039888B3FFE7FFE70020AE
S31508004CE0019040F28860C2F20000016809680191EB
S31508004CF00068406801900198FFE740F28860C2F2B8
S31508004D000000016809680291016849680291FDF787
S31508004D10A3FE40F2F430C2F2000000684068029038
S31508004D200298C0F1240040F62D41C2F20001087035
S31508004D3040F60841C2F2000101200870FFE740F280
S31508004D408860C2F20000FDF7EFFE04B080BD0000E7
S31508004D502DE9F0418AB0694664270F610026C4F23E
S31508004D60E006CE600025C4F240058D600024C4F23A
S31508004D7040144C6000200590086040F6D820C2F226
S31508004D80000006904FF4E16107914FF4C86208925B
S31508004D904FF08043099301F08FFDDDF814C00698A3
S31508004DA00799089A099BEE46CEF8107040F200085B
S31508004DB0C4F2A008CEF80C80CEF80850CEF804400D
S31508004DC0CEF800C04C3001F077FDDDF814C0069827
S31508004DD00799089A099BEE46CEF81070CEF80C8013
S31508004DE0CEF80850CEF80440CEF800C0983001F04E
S31508004DF063FDDDF814C006980799089A099BEE46E4
S31508004E00CEF81070CEF80C60CEF80850CEF80440F4
S31508004E10CEF800C0E43001F04FFD0AB0BDE8F081DD
S31508004E2081B08DF803008DF802109DF803009DF8F7
S31508004E3002100840002818BF012001B07047000082
S31508004E4080B540F29840C2F20000FDF7F9F880BD3F
S31508004E5080B5ADF59A6D40F26851C2F200015991DC
S31508004E600DF58D605C9068225A92FBF7ADF9599959
S31508004E705A9A0DF580605B90FBF7A6F95C9968462F
S31508004E805D9000225E92C0F8D4204FF48042C0F8AC
S31508004E90D02041F20002C4F20102C0F8CC200C2254
S31508004EA05F92C0F8C82008226092C2650C315C2265
S31508004EB061926291639063986299619A51F8043B92
S31508004EC040F8043B043A619262916390F3D15B998E
S31508004ED05D9860306822569257915890589857991D
S31508004EE0569A51F8043B40F8043B043A56925791B7
S31508004EF05890F3D1DDF86814DDF86C24DDF87034C9
S31508004F0040F23870C2F200004C9000F029FF5A9A1D
S31508004F1040F20051C2F200014D91E6A84F90FBF70E
S31508004F2053F94D995A9ACCA84E90FBF74DF95F9BC9
S31508004F30609A4F99684650904FF0010CCDF844C1DD
S31508004F40C0F8D4C04FF4807CC0F8D0C040F6000C3E
S31508004F50C4F2010CCDF848C1C0F8CCC0C0F8C830BE
S31508004F60C2650C315C2253925491559055985499C8
S31508004F70539A51F8043B40F8043B043A539254912F
S31508004F805590F3D14E9950986030682249924A91CB
S31508004F904B904B984A99499A51F8043B40F8043B80
S31508004FA0043A49924A914B90F3D14C98E830E699E5
S31508004FB0E79AE89B00F0D4FE4D995A9AB2A8439016
S31508004FC0FBF702F94D995A9A98A84290FBF7FCF814
S31508004FD0DDF844C1529B5E9A439968464490C0F8EE
S31508004FE0D4C04FF4006CC0F8D0C0C0F8CC3004234D
S31508004FF04593C0F8C830C2650C315C224692479189
S31508005000489048984799469A51F8043B40F8043B1B
S31508005010043A469247914890F3D1429944986030B1
S3150800502068223F9240914190419840993F9A51F8A1
S31508005030043B40F8043B043A3F9240914190F3D137
S315080050404C9800F5E870B299B39AB49B00F088FEC4
S3150800505059995A9A7EA83A90FBF7B6F859995A9AE6
S3150800506064A83990FBF7B0F8459B5E9A3A9968466A
S315080050703B90C0F8D4204FF4805CC0F8D0C040F60E
S31508005080004CC4F2010CC0F8CCC0C0F8C830C265E8
S315080050900C315C223C923D913E903E983D993C9A5B
S315080050A051F8043B40F8043B043A3C923D913E904B
S315080050B0F3D139993B986030682236923791389007
S315080050C038983799369A51F8043B40F8043B043A25
S315080050D0369237913890F3D14C9800F52E707E9918
S315080050E07F9A809B00F03CFE0DF59A6D80BD00000E
S315080050F080B5ADF5187DC8202990FBF741FC40F234
S31508005100D051C2F200012A917EA82C9068222B92D7
S31508005110FBF75AF82C9968460022C4F23022026638
S315080051200422C2650C315C222D922E912F902F9865
S315080051302E992D9A51F8043B40F8043B043A2D92D7
S315080051402E912F90F3D140F23010C2F20000239036
S31508005150743024907E997F9A809B01F04BF82498AE
S3150800516000F04AFE2998FBF70BFC2A992B9A64A8AB
S315080051702590FBF729F8259968460022C4F294225F
S3150800518002660822C2650C315C2226922791289075
S3150800519028982799269A51F8043B40F8043B043A84
S315080051A0269227912890F3D12398E8301E90649987
S315080051B0659A669B01F01EF81E9800F047FF29982D
S315080051C0FBF7DEFB2A992B9A4AA81F90FAF7FCFFF1
S315080051D01F9968460022C4F20C2202660C22C26598
S315080051E00C315C2220922191229022982199209AB2
S315080051F051F8043B40F8043B043A2092219122904E
S31508005200F3D1239800F5AE7019904A994B9A4C9BA6
S3150800521000F0F0FF199800F06FFE2998FBF7B0FB35
S315080052202A992B9A30A81A90FAF7CEFF1A99684647
S315080052300022C4F2F62202660022C2650C315C2204
S315080052401B921C911D901D981C991B9A51F8043BA2
S3150800525040F8043B043A1B921C911D90F3D1239805
S315080052603099319A329B00F0C5FF239800F048FF29
S315080052700DF5187D80BD000080B584B040F2003081
S31508005280C2F20000407DC8B1FFE740F23010C2F21A
S31508005290000003900021C4F2F62100F08BFE03986B
S315080052A074300021C4F2302100F084FE0398E830FF
S315080052B00021C4F2942100F07DFEFFE740F20030A1
S315080052C0C2F20000807B90B1FFE740F23010C2F2D4
S315080052D00000029074300021C4F2302100F06AFE0A
S315080052E002980021C4F2F62100F064FEFFE740F2BE
S315080052F00030C2F20000407B90B1FFE740F2301068
S31508005300C2F20000019074300021C4F2302100F08E
S3150800531051FE01980021C4F2042100F04BFEFFE77C
S3150800532040F20030C2F20000C07CC8B1FFE740F28C
S315080053303010C2F20000009074300021C4F230210F
S3150800534000F038FE0098E8300021C4F2A00100F011
S3150800535031FE00980021C4F2F01100F02BFEFFE7A1
S3150800536040F27200C2F20000008801280FD1FFE760
S3150800537040F23010C2F2000000F5AE7000F0BCFD3D
S3150800538040F27201C2F2000100200880FFE740F2F5
S315080053907400C2F20000008804280DD1FFE740F22D
S315080053A03010C2F2000000F0ABFE40F27401C2F207
S315080053B0000100200880FFE740F27000C2F20000FA
S315080053C0008802280ED1FFE740F23010C2F2000032
S315080053D0743000F011FD40F27001C2F200010020A5
S315080053E00880FFE740F27600C2F200000088012834
S315080053F00ED1FFE740F23010C2F20000E83000F0AC
S3150800540025FE40F27601C2F2000100200880FFE77F
S3150800541004B080BD80B582B040F27800C2F20000C8
S315080054204FF4FA6100914FF4004301931A46FDF7D1
S3150800543019FF0099019B40F21C10C2F200001A469F
S31508005440FDF710FF02B080BD80B582B001900198CB
S31508005450009040F60840C2F200000078012824D1E6
S31508005460FFE740F62D40C2F20000007812281CD152
S31508005470FFE7009800F026F80098407E012801D141
S31508005480FFE7FFE740F62D40C2F200000021017059
S3150800549040F60842C2F200021170017840F609404F
S315080054A0C2F20000FAF7C2FEFFE740F28860C2F2D5
S315080054B0000040F60941C2F200012422FDF79EFED3
S315080054C002B080BD80B58AB0099009980690002080
S315080054D08DF8230040F60940C2F200000790FFE766
S315080054E0079801780020A529059008D0FFE79DF8C0
S315080054F0231000201429B8BF01200590FFE705985E
S31508005500C00748B1FFE79DF8230001308DF8230056
