S315080000003012002089010008751100086D110008DA
S315080000107111000897010008990100080000000006
S31508000020000000000000000000000000D5140008D1
S31508000030450300080000000079110008D9140008DB
S31508000040A3010008A3010008A3010008A3010008F2
S31508000050A3010008A3010008A3010008A3010008E2
S31508000060A3010008A3010008A3010008A3010008D2
S31508000070A301000815030008210300082D03000842
S3150800008039030008A3010008A3010008A30100081A
S31508000090A3010008A3010008A3010008E103000862
S315080000A0A3010008ED140008A3010008A301000835
S315080000B0A3010008A3010008A3010008A301000882
S315080000C0A3010008A3010008A30100087D11000888
S315080000D0A3010008A30100083D210008A3010008A8
S315080000E049030008A3010008A301000800F002F86C
S315080000F000F03AF80AA090E8000C82448344AAF17A
S315080001000107DA4501D100F02FF8AFF2090EBAE877
S315080001100F0013F0010F18BFFB1A43F0010318472D
S31508000120E85F000008600000103A24BF78C878C16C
S31508000130FAD8520724BF30C830C144BF04680C60DF
S31508000140704700000023002400250026103A28BF27
S3150800015078C1FBD8520728BF30C148BF0B6070472B
S315080001601FB51FBD10B510BD00F031F81146FFF7D9
S31508000170F7FF03F04BF800F04FF803B4FFF7F2FF70
S3150800018003BC00F057F800000948804709480047B3
S31508000190FEE7FEE7FEE7FEE7FEE7FEE7FEE7FEE729
S315080001A0FEE7FEE704480549054A064B7047000086
S315080001B0E9140008ED000008300C00203012002079
S315080001C0300E0020300E0020704770477047754685
S315080001D000F02CF8AE4605006946534620F00700A5
S315080001E0854618B020B5FFF7DDFFBDE820404FF083
S315080001F000064FF000074FF000084FF0000BAC4622
S31508000200ACE8C009ACE8C009ACE8C009ACE8C0096C
S3150800021021F007018D46704710B50446AFF30080FC
S315080002202046BDE81040FFF7A8BF00000048704709
S315080002300800002001491820ABBEFEE72600020090
S31508000240704710B5203AC0F00B80B1E81850A0E806
S315080002501850B1E81850A0E81850203ABFF4F5AF86
S315080002605FEA027C24BFB1E81850A0E8185044BFE2
S3150800027018C918C0BDE810405FEA827C24BF51F84F
S31508000280043B40F8043B08BF7047D20728BF31F843
S31508000290023B48BF11F8012B28BF20F8023B48BF94
S315080002A000F8012B70474FF0000200B5134694463C
S315080002B09646203922BFA0E80C50A0E80C50B1F1B0
S315080002C02001BFF4F7AF090728BFA0E80C5048BFC4
S315080002D00CC05DF804EB890028BF40F8042B08BF62
S315080002E0704748BF20F8022B11F0804F18BF00F85E
S315080002F0012B704710B500F009F8006810BD10B55D
S31508000300044600F003F8046010BD0000004870477A
S315080003100800002040F20C30C2F2000000F080B85D
S3150800032040F29C30C2F2000000F07AB840F2543035
S31508000330C2F2000000F074B840F2E430C2F20000E5
S3150800034000F06EB87047000040F21441C4F2010193
S315080003500868000540F22870C2F2000010D54FF474
S3150800036000620A6090F9D821002A06DD0122B0F859
S31508000370DA311A44A0F8DA2102E0B2F1FF3F29DDAA
S315080003800A68D20410D54FF480520A6090F9C02248
S31508000390002A06DD0122B0F8C2321A44A0F8C222A9
S315080003A002E0B2F1FF3F18DD0A68520411D54FF496
S315080003B080420A6090F90810002901DD012105E054
S315080003C0B1F1FF3FC8BF70474FF6FF71428911442C
S315080003D0418170474FF6FF72C9E74FF6FF72DAE7B9
S315080003E040F21440C4F201000168C90517D54FF45C
S315080003F08071016040F22870C2F2000090F9F01096
S31508000400002901DD012105E0B1F1FF3FC8BF7047B2
S315080004104FF6FF71B0F8F2201144A0F8F2107047B9
S3150800042010B5D0E910CE0168DCF800300A6823FA66
S315080004300EF35C0724D512F0040421D00A6892064C
S3150800044003D40A6822F004020A602F22C4F20202C8
S31508000450914240F20402C4F2020250DD3023C4F293
S315080004600203994263D04423C4F20203994261D03D
S315080004705823C4F20203994261D14FF4802366E0FF
S315080004809C0726D512F0020423D00A68920605D4E2
S315080004900A6822F00A020A60012242622F22C4F286
S315080004A00202914240F20402C4F2020233DD302312
S315080004B0C4F20203994250D04423C4F2020399427B
S315080004C04ED05823C4F2020399424ED14FF400335A
S315080004D053E01B0757D512F0080208BF10BD0A687B
S315080004E022F00E020A60012101FA0EF2CCF804206D
S315080004F0C1634162416B0022026259BB43E0082393
S31508000500C4F20203994218D01C23C4F2020399428A
S3150800051015D140231BE00823C4F20203994222D0D6
S315080005201C23C4F2020399421FD1202325E04FF46D
S3150800053080630CE04FF4804309E0042307E002F1EE
S3150800054068044FF08063A14208BF4FF4800313602C
S31508000550016BC1B1BDE8104008474FF400730CE0C9
S315080005604FF4005309E0022307E002F168044FF054
S315080005700073A14208BF4FF400131360C16A00223A
S3150800058000290262E6D110BD2DE9F04F82B0D1F8FC
S3150800059000E0BEF1000F00F0F78041F20042C4F21D
S315080005A00102042340F2004C904208BF0323C4F220
S315080005B0010C0093012300254FF0010A4FF00009B2
S315080005C043E0012705F00C030F229A402EEA0202A7
S315080005D007FA03F34FEA9B041A4346F824204E68A9
S315080005E040F20C47F202DCF8082054BF22EA08025F
S315080005F042EA0802C4F20107CCF808203A68B302B6
S3150800060054BF22EA080242EA08023A60B303DCF859
S31508000610042054BF22EA080242EA0802F303CCF88F
S315080006200420DCF800204FF0010354BF22EA080238
S3150800063042EA0802CCF80020D1F800E004353EFA78
S315080006400AF20AF1010A00F09F80AAF1010B03FAE7
S315080006500BF81EEA080FEFD04E684FF6FF72C1F28C
S315080006601002964210DC122E50D8DFE806F0330A44
S3150800067041454F4F4F4F4F4F4F4F4F4F4F4F4F489B
S315080006804C00D1F80C9041E04FF6FF72C1F22102FE
S3150800069096420FDC0022C1F2110296421AD00022BD
S315080006A0C1F21202964215D00022C1F221029642E8
S315080006B010D02BE00022C1F2220296420AD0002274
S315080006C0C1F23102964205D00022C1F232029642A8
S315080006D01CD100BF8A6842B1012A14BFC0F8148031
S315080006E0C0F810804FF0080910E04FF004090DE03B
S315080006F0CA6802F1080909E04FF0000906E0CA686D
S3150800070002F1040902E0CA6802F10C092A46074602
S31508000710BBF1080F24BF203A04373E680F249440E3
S31508000720A64309FA02F232433A60CA79D2067FF53D
S3150800073083AF41F21803C4F202031A68ACF57E7659
S3150800074042F001021A601A6802F001020192019A47
S315080007502BF0030256F802E040F60002C4F201024A
S3150800076090420FD040F60042C4F2010290423FF494
S3150800077028AF41F20002C4F20102009F904208BF6E
S3150800078002271FE700271DE702B0BDE8F08F00002B
S31508000790002804BF0120704710B581B0016C40F2F3
S315080007A0FF7C0029C4F2000C75D10168002261455E
S315080007B0C26314DCB1F1804F54D040F20042C4F257
S315080007C00002914267D141F21C01C4F202010A6893
S315080007D042F002020A60096801F0020159E040F697
S315080007E00002C4F20002914248D042F60042C4F226
S315080007F0010291424FD141F21C01C4F2020151F8A3
S31508000800042C4FF0040E42F4006241F8042C51F80F
S31508000810041C4FF0FF3301F40061009100994EF675
S315080008200C51CEF200010968C1F3022181F00702DA
S31508000830042A28BF7246033903FA02F238BF002198
S315080008402EEA020202FA01F14EF219420901CEF22B
S31508000850000211704EF20011CEF200014FF0007244
S315080008600A6018E041F21C01C4F202010A6842F06B
S3150800087001020A60096801F001010AE041F21C015F
S31508000880C4F202010A6842F004020A60096801F02B
S3150800089004010091009902210164026842F6004EA3
S315080008A011686245C4F2010E05DCB2F1804F0AD028
S315080008B040F2004303E0724505D040F60003C4F257
S315080008C000039A4203D1836821F0700119436245F7
S315080008D005DCB2F1804F0AD040F2004303E07245CE
S315080008E005D040F60003C4F200039A4203D1036917
S315080008F021F440711943836921F08001D0F804C0BE
S31508000900C468194372451160D462C2F828C002D17E
S315080009104169CEF830100121516141664164816414
S31508000920C164016541658165C16501660164002090
S3150800093001B010BD80B5C26B012A4FF0020200F06B
S31508000940BC800264D0F800C04FF67772DCF8083035
S3150800095023EA0202CCF808200B684F2B28DC1F2B51
S3150800096043DD202B44D0302B42D0402B40F0A780CB
S31508000970D1F804E0C968DCF82030DCF8202022F041
S315080009800102CCF82020DCF8182022F0F00242EA16
S31508000990011123F00A0242EA0E02CCF81810CCF82C
S315080009A02020DCF8081041F0470121F030017DE0F5
S315080009B06F2B25DDB3F5005F46D0B3F5805F77D0A2
S315080009C0702B7CD1D1E901E3C968DCF8082043EA39
S315080009D00E0322F47F4243EA01211143CCF80810A2
S315080009E0DCF8081041F0770160E00BB1102B66D1F6
S315080009F0DCF8081021F07001194341F0070155E0B1
S31508000A00502B34D0602B5AD1D1F804E0C968DCF8F1
S31508000A102030DCF8202022F01002CCF82020DCF868
S31508000A20182022F4704242EA013123F0A00242EA79
S31508000A300E12CCF81810CCF82020DCF8081041F07B
S31508000A40670121F0100131E0D1E901E3C968DCF85A
S31508000A50082043EA0E0322F47F4243EA01211143A8
S31508000A60CCF80810DCF8081041F480411EE0D1F8F3
S31508000A7004E0C968DCF82030DCF8202022F0010206
S31508000A80CCF82020DCF8182022F0F00242EA011106
S31508000A9023F00A0242EA0E02CCF81810CCF82020FD
S31508000AA0DCF8081041F0570121F02001CCF80810B5
S31508000AB00022012101640021C163104680BD012284
S31508000AC0F7E7000070B586B040F60001C4F20001F1
S31508000AD088424FF00001CDE90411CDE9021146D054
S31508000AE040F20041C4F2000188425CD0B0F1804F68
S31508000AF057D141F21800C4F20200016840F60044DA
S31508000B0041F0040101600168C4F2010401F0040126
S31508000B1001910199016802AD41F008010160006880
S31508000B20022600F008000190019803200290A4F51F
S31508000B308060294603960596FFF726FD4FF4406028
S31508000B40CDE90206204629460596FFF71DFD042035
S31508000B50C4F2010001684FF6FF42CFF6FF021140CA
S31508000B6041F0E06141F40071016006B070BD41F2E8
S31508000B701800C4F20200016841F00801016000682B
S31508000B8002A900F00800019001984FF470700290D5
S31508000B9002200390059040F60040C4F20100FFF7DA
S31508000BA0F3FC06B070BD41F21800C4F202000168F9
S31508000BB040F6004441F0040101600168C4F20104F2
S31508000BC001F0040101910199016802AD41F00801A3
S31508000BD001600068022600F0080001900198C02014
S31508000BE00290A4F58060294603960596FFF7CCFC8B
S31508000BF00320CDE90206204629460596FFF7C4FCE0
S31508000C0006B070BD002804BF0120704710B5016CFE
S31508000C1040F2FF7E002904BF0021C163022101645E
S31508000C200168C4F2000E0B6842F6004C7145C4F226
S31508000C30010C05DCB1F1804F0AD040F2004203E016
S31508000C40614505D040F60002C4F20002914203D184
S31508000C50826823F070031343714505DCB1F1804FB8
S31508000C600AD040F2004203E0614505D040F6000292
S31508000C70C4F20002914203D1026923F4407313437C
S31508000C8023F080028369D0F804E0C4681A436145FA
S31508000C900A60CC62C1F828E002D14269CCF830205B
S31508000CA001224A61426642648264C2640265426500
S31508000CB08265C26502660264002010BD002804BF72
S31508000CC0012070472DE9F04385B00446406C40F298
S31508000CD0440840F60005C4F202080028C4F20105DB
S31508000CE040F0FF80206844F20041C4F2000100276A
S31508000CF0884227640497CDE90277019778D043F6AE
S31508000D000001C4F20101884240F0EB8041F218006C
S31508000D10C4F20200016801AE41F480410160016835
S31508000D204FF0020901F4804100910099016841F0F1
S31508000D30040101600068314600F004000090009844
S31508000D404FF400700190032004902846CDF80890CF
S31508000D50FFF71AFC4FF480600190002728463146B9
S31508000D60CDE90277FFF710FC40F25430C2F20000DA
S31508000D70C0E90477C0E90677C0F82490414651F8DF
S31508000D80142F08264FF0800C4FF0100E05F5784307
S31508000D9066F30D12C0E900178760C0F80CC0C0E9F9
S31508000DA0103E0A600121C76341620762E0638462FC
S31508000DB040F29C30C2F200000C22C0E9008EC0E965
S31508000DC0027CC0E90477C0E90677C0E91032C0F8AA
S31508000DD02490D8F80020092363F30D12C8F80020E0
S31508000DE0C76341620762A06300F12801252050E02D
S31508000DF041F21800C4F20200416801AE41F4003124
S31508000E00416041684FF0020901F4003100910099F0
S31508000E10016841F0040101600068314600F00400F1
S31508000E200090009804200190032004902846CDF8ED
S31508000E300890FFF7A9FB0820CDE9010728463146A7
S31508000E400397FFF7A1FB40F2E430C2F20000C0F8B6
S31508000E502490414680234FF4005651F8282FC0E9C4
S31508000E600273C0E90676142305F57846C0E91063CF
S31508000E704FF4027363F30D12C0E90017C0E9047753
S31508000E800A600121C76341620762E06300F1280135
S31508000E9026200C604EF60C51CEF2000109684FF080
S31508000EA0FF33C1F3022181F00702042A28BF042276
S31508000EB0033903FA02F24FF0050338BF002123EA8B
S31508000EC0020202FA01F14EF20412CEF20002090100
S31508000ED0831883F8FC1200F00700012101FA00F0DC
S31508000EE010602420606494E80F000826C76889000B
S31508000EF027F40057C760076927F440573B43036147
S31508000F00D4E904371A43C3683A4341F20C67BB4332
S31508000F101A43C2604269A36922F440721A4340F236
S31508000F2000034261C2F200031B68D8F8C07F05F5CA
S31508000F304052904208BF0B2627FA06F202F0070233
S31508000F401BA7BA5C23FA02F219235A43B2FBF1F142
S31508000F5048F21F52C5F2EB12A1FB02377B094FF686
S31508000F609C77C0F6FF7703FB0711322707EB0111C1
S31508000F70A1FB0212F02101EA521101EB0311C2F39F
S31508000F80431211448160016921F49041016141696C
S31508000F9021F02A014161C16841F40051C160002075
S31508000FA02021E0646164A164606305B0BDE8F08354
S31508000FB000000000010203042DE9F04181B040F26F
S31508000FC07860C2F20000816C202940F0CC804FF096
S31508000FD0000C40F6FC332421C0F830C0C2F20003EE
S31508000FE0818522218362C0F84CC08164C16B41F6B9
S31508000FF0F96E42F24904C0F6000EC0F60004C1E9D3
S315080010000BE40C6A026841F68555C0F60005012C0A
S315080010104D63C1F838C02BD04FF0010EC1F820E05F
S315080010204C6A012C22D102244C620024CC63D1E9FB
S315080010300048D1E9106127680EFA01F127F0010787
S31508001040151D27607160242161602946B8F1100FCB
S3150800105004BF19462B46A160E360216841F00E01E2
S315080010602160216841F00101216001E000230B6243
S31508001070CDF800C011680091516800910099016986
S3150800108031B300BF016851E8031F026841F480715B
S3150800109042E80313E3B1016851E8031F026841F40B
S315080010A0807142E803139BB1016851E8031F026887
S315080010B041F4807142E8031353B1016851E8031FF4
S315080010C0026841F4807142E80313002BDAD100BFAD
S315080010D0016851E8051F026841F0010142E805135D
S315080010E0BBB3016851E8051F026841F0010142E8F7
S315080010F0051373B3016851E8051F026841F0010141
S3150800110042E805132BB3016851E8051F026841F050
S31508001110010142E80513002BDAD11AE0016851E80B
S31508001120051F026841F0400142E80513DBB101687A
S3150800113051E8051F026841F0400142E8051393B1E2
S31508001140016851E8051F026841F0400142E80513AD
S315080011504BB1016851E8051F026841F0400142E8B9
S315080011600513002BDAD101B0BDE8F081FEE70000D7
S31508001170FEE70000FEE7000070470000B0B584B047
S3150800118040F22C44C2F2000420684168826812F0DA
S31508001190400305D112F0010518BF11F040050ED124
S315080011A0950704D511F0800501D0616C08E012F0AE
S315080011B0600F18BF11F0200507D104B0B0BD216C2F
S315080011C0204604B0BDE8B0400847B3B1636D032BB1
S315080011D008D100210291C1680291806802900298A4
S315080011E004B0B0BDA36D43F00403A36500230393C5
S315080011F0C368039383680393039B12F020020CD001
S31508001200A26D42F00102A265002201928268019253
S31508001210026822F040020260019AA26D002ACCD030
S315080012204268890722F0E00242604FF001026265D7
S31508001230C3D0416841F2A13521F003014160E06C59
S31508001240C0F60005002851D08563416A022923D1DA
S315080012500268116821F00E0111602F211368C4F28B
S3150800126002018A4240F20401C4F2020123F001039A
S31508001270136018DD3023C4F202039A421FD04423B8
S31508001280C4F202039A421DD05823C4F202039A42BA
S315080012901DD14FF4803322E00421C163A06D40F0D4
S315080012A04000A06522E00823C4F202039A420CD04B
S315080012B01C23C4F202039A4209D110230FE04FF40B
S315080012C080730CE04FF4805309E0012307E001F135
S315080012D0680C4FF08073624508BF4FF480130B60AB
S315080012E0012141620021016200F05AF8A06C002831
S315080012F03FF463AF8563416A022923D10268116806
S3150800130021F00E0111602F211368C4F202018A42EE
S3150800131040F20401C4F2020123F00103136019DD4F
S315080013203023C4F202039A4220D04423C4F20203B3
S315080013309A421ED05823C4F202039A421ED14FF491
S31508001340803323E00421C163A06D40F04000A0650E
S3150800135004B0B0BD0823C4F202039A420CD01C2381
S31508001360C4F202039A4209D110230FE04FF48073A6
S315080013700CE04FF4805309E0012307E001F168050A
S315080013804FF08073AA4208BF4FF480130B60012107
S3150800139041620021016204B0BDE8B040AFF30080AD
S315080013A0806A0021C187C18670470000806A01688B
S315080013B04A6822F003024A60816D41F01001816596
S315080013C0012141657047000070470000B0B582B042
S315080013D0016840F62445C2F20005D0F828C02868FE
S315080013E00968890674D4DCF800104B6823F02003DA
S315080013F04B604B6823F002034B602B68A0EB030E8F
S3150800140040F20000C2F200002B6804680EF1640086
S31508001410C4F3CB34444301948C68240644D500BFF6
S315080014202C68E41A84420BD2019C019A002CA2F182
S31508001430010201928A6808BF20461206F0D433E0FA
S31508001440486820F0E0004860DCF80400B0F5827FC8
S315080014500BD1DCF80800B0F5004F02D0B0F5806F6C
S3150800146003D1086820F040000860DCF82800B0F5D1
S31508001470005F07D1086820F400500860086840F447
S31508001480005008600120CCF854000020CCF8500029
S31508001490DCF8580040F02000CCF85800DCF858007A
S315080014A040F02000CCF85800DCF8080040B90020CD
S315080014B00090DCF80000C1680091806800900098F0
S315080014C00020ACF836000120CCF85400DCF85800AF
S315080014D002B0B0BD7047000040F62440C2F20000DA
S315080014E00168013101607047704700002DE9F04F2F
S315080014F081B040F28849C2F20009D9F800000169B2
S31508001500890744BFC1685FEA817139D4016949070F
S3150800151044BFC1685FEA41713AD40169090744BF0B
S31508001520C1685FEA01713BD40169C90644BFC16855
S315080015305FEAC1613CD40169C9071CBFC1685FEA9B
S31508001540C1713DD10169090641BFC1685FEA016100
S315080015506FF0800101610169490641BFC1685FEA10
S3150800156041616FF0400101610169890641BFC168A7
S315080015705FEA81616FF02001016101B0BDE8F08F7B
S315080015806FF00201016181690021C9F81C10BDE7ED
S315080015906FF00401016181690021C9F81C10BCE7DC
S315080015A06FF008010161C1690021C9F81C10BBE789
S315080015B06FF010010161C1690021C9F81C10BAE772
S315080015C042F60042C4F201026FF001019042016145
S315080015D040F0CE8340F26A03C2F20003188840F254
S315080015E06C02C2F2000201301188188040F26803CA
S315080015F0481CC2F200031988108040F26E02C2F23B
S315080016000002481C11881880481C108040F6F830E3
S31508001610C2F20000017840F2F0260129C2F2000663
S3150800162040F0C48040F62041C2F200010A78122A2E
S3150800163040F0BC8040F6FC33C2F200031A78A52AB3
S315080016401A4659D01A4612F8017FA52F54D01A46C1
S3150800165012F8027FA52F4FD01A4612F8037FA52F3E
S315080016604AD01A4612F8047FA52F45D01A4612F812
S31508001670057FA52F40D01A4612F8067FA52F3BD026
S315080016801A4612F8077FA52F36D01A4612F8087F91
S31508001690A52F31D01A4612F8097FA52F2CD01A4645
S315080016A012F80A7FA52F27D01A4612F80B7FA52F06
S315080016B022D01A4612F80C7FA52F1DD01A4612F80A
S315080016C00D7FA52F18D01A4612F80E7FA52F13D016
S315080016D01A4612F80F7FA52F0ED01A4612F8107F59
S315080016E0A52F09D01A4612F8117FA52F04D01A463D
S315080016F012F8127FA52F3FD100237376537CA62BB1
S3150800170048D1B2F80130B2F8037033807780B2F866
S315080017100530B2F80770B380F780B2F80930B2F82E
S315080017200B7033817781537B977B337607F0010300
S315080017303373C7F340037373C7F3C003B373C7F3B5
S315080017400013F373C7F380133374FB09D77B7374E1
S31508001750C7F38003B374C7F3C003F374C7F3001366
S31508001760127C3375C7F34013B375C7F3801302F0C1
S315080017700102F37572750FE01A4612F8137F1425E5
S31508001780A52F0CBF132503F114025B5D0027A52BBB
S315080017907776B3D00122727600220A700270097831
S315080017A040F6FC30C2F20000FEF77DFDFFF704FCB0
S315080017B040F21410C2F200000078B188002818BF61
S315080017C04FF400400D1A40F2101040F21C11C2F2FC
S315080017D00000C2F20001056005D10978002918BF8A
S315080017E04FF4FA610CE02A46002D48BF6A42097890
S315080017F0002918BF4FF4FA618A4201D2002507E092
S315080018008D4204DA4A42954203DC0D4400E06D1A23
S3150800181005607089318940F280040028C2F200040C
S3150800182008BF002904D028B121B904F01DFA06E042
S31508001830002009E049B140B9484204F0FDF9002109
S31508001840C4F2C41104F08CFA2060684204F0F4F97A
S315080018504EF68531C3F6517104F082FA804640F29D
S315080018608400C2F20000002D08BFA846C0F8008018
S3150800187040F27400C2F2000000783188002818BFD0
S315080018804FF40040081A40F2700140F27C02C2F29E
S315080018900001C2F20002086005D11278002A18BFBA
S315080018A04FF4FA620CE00346002848BF4342127818
S315080018B0002A18BF4FF4FA62934201D2002007E0CB
S315080018C0904204DA5342984203DC104400E0801A3E
S315080018D0086080B1404203F0BEFE49F69A1249F606
S315080018E09913C9F69912C4F2050303F0CBFE03F067
S315080018F051FE064600E0002640F288002568C2F23E
S3150800190000000660404629464FF6A26B03F0E4FF46
S3150800191044F2AF710446C3F66161304604F020FA1A
S315080019202146074603F0D8FF40F28C01064680F0B0
S315080019300040C2F2000108604046394603F0CCFF79
S315080019400146284604F0D8FA40F2900AC2F2000A84
S31508001950CAF800002046394604F0CEFA40F294014F
S31508001960C2F2000108602846394603F0B5FF014671
S31508001970404604F0C1FA40F29805C2F20005286014
S31508001980304603F07DFF4EF679124AF60843C3F255
S315080019902612CBF68C7303F075FE03F02DFE40F28B
S315080019A02874C2F20004B0F5AF7F608007DB40F20E
S315080019B06C084FF4AF70C2F2000860800BE00BF1C0
S315080019C0010109B240F26C0888424FF6A260C2F2E1
S315080019D00008B8BF60802046002100F0F9FFDAF859
S315080019E0000003F04DFF4EF679124AF60843C3F29B
S315080019F02612C3F68C7303F045FE03F0FDFDB0F521
S31508001A00AF7FA4F8EA0008DB40F2F0264FF4AF7087
S31508001A10C2F20006A4F8EA000CE00BF1010109B2D3
S31508001A2040F2F02688424FF6A260C2F20006B8BF1E
S31508001A30A4F8EA0004F1E800012100F0C9FF40F229
S31508001A409400C2F20000006803F01AFF4EF67912FD
S31508001A504AF60843C3F22612C3F68C7303F012FE45
S31508001A6003F0CAFDB0F5AF7FA4F8D20104DB4FF44A
S31508001A70AF70A4F8D20108E00BF1010109B288425F
S31508001A804FF6A260B8BFA4F8D20104F5E8700221A7
S31508001A9000F09EFF286803F0F3FE4EF679124AF628
S31508001AA00843C3F22612C3F68C7303F0EBFD03F06A
S31508001AB0A3FDB0F5AF7FA4F8BA0208DB40F26805CB
S31508001AC04FF4AF7BC2F20005A4F8BAB20AE00BF1F4
S31508001AD0010109B240F268058842C2F20005B8BFA2
S31508001AE0A4F8BAB204F52E70032100F071FF707DD8
S31508001AF00021002840F2201040F2000240F26E0455
S31508001B00C2F20000C4F23021C4F2F622C2F2000486
S31508001B104FD0036F40F24A77082B4260078007D000
S31508001B20042B08D0002B836814BF4033343304E0F9
S31508001B3083683C3301E08368383340F24A771F6094
S31508001B40D0F8E4304FF47777082B8167A0F87470E3
S31508001B5007D0042B08D0002BC36F14BF403334338F
S31508001B6004E0C36F3C3301E0C36F38334FF4777733
S31508001B701F600023C4F29423C0F8EC30D0F8583123
S31508001B8040F22A57082BA0F8E87008D0042B0AD090
S31508001B90002BD0F8F03014BF4033343306E0D0F8C9
S31508001BA0F0303C3302E0D0F8F030383340F22A57B0
S31508001BB01F60B37B7BB3D0F8E4304FF47777082BFC
S31508001BC08167A0F8747007D0042B08D0002BC36F68
S31508001BD014BF4033343304E0C36F3C3301E0C36FB2
S31508001BE038334FF477771F604260026F40F24A73CA
S31508001BF0082A038007D0042A08D0002A826814BF5E
S31508001C004032343204E082683C3201E0826838327D
S31508001C1040F24A731360727B92B3D0F8E4204FF413
S31508001C207773082A8167A0F8743007D0042A08D089
S31508001C30002AC26F14BF4032343204E0C26F3C320D
S31508001C4001E0C26F38324FF4777313600022C4F292
S31508001C5004224260026F40F26233082A038007D0EA
S31508001C60042A08D0002A826814BF4032343204E0BD
S31508001C7082683C3201E08268383240F2623313608F
S31508001C80F27C40F26A06002AC2F2000652D0816748
S31508001C90D0F8E4104FF477720829A0F8742007D01A
S31508001CA0042908D00029C16F14BF4031343104E03B
S31508001CB0C16F3C3101E0C16F38314FF477720A6069
S31508001CC00021C4F2A001C0F8EC10D0F8581140F277
S31508001CD02B220829A0F8E82008D004290AD00029D0
S31508001CE0D0F8F01014BF4031343106E0D0F8F010C7
S31508001CF03C3102E0D0F8F010383140F22B220A606D
S31508001D000021C4F2F0114160016F40F24132082906
S31508001D10028007D0042908D08068002914BF403003
S31508001D20343004E080683C3001E08068383040F2A6
S31508001D30413101603088012803D101F03FF90020C4
S31508001D403080B8F80000042804D101F001FA002018
S31508001D50A8F800002888022803D101F0C5F8002059
S31508001D6028802088012803D101F08EF900202080E0
S31508001D70D9F80000FFF7E6BB806A0021C185C18457
S31508001D8070470000806A01684A69436C212B2DD18F
S31508001D9012F080022AD00021C18400BF016851E8F0
S31508001DA0031F026821F0C00142E80313DBB1016892
S31508001DB051E8031F026821F0C00142E8031393B1FA
S31508001DC0016851E8031F026821F0C00142E80313C5
S31508001DD04BB1016851E8031F026821F0C00142E8CF
S31508001DE00313002BDAD12021416401684969826C0A
S31508001DF0222A7CD111F0400179D00021C18500BF8B
S31508001E00016851E8031F026821F4907142E8031340
S31508001E10BBB3016851E8031F026821F4907142E8D8
S31508001E20031373B3016851E8031F026821F4907124
S31508001E3042E803132BB3016851E8031F026821F433
S31508001E40907142E80313002BDAD11AE0016851E8D1
S31508001E50051F026821F0010142E80513DBB101689C
S31508001E6051E8051F026821F0010142E8051393B104
S31508001E70016851E8051F026821F0010142E80513CF
S31508001E804BB1016851E8051F026821F0010142E8DB
S31508001E900513002BDAD1016B012924D1016851E819
S31508001EA0031F026821F0100142E80313DBB1016841
S31508001EB051E8031F026821F0100142E8031393B1A9
S31508001EC0016851E8031F026821F0100142E8031374
S31508001ED04BB1016851E8031F026821F0100142E87E
S31508001EE00313002BDAD12021816400210163C16C20
S31508001EF041F01001C16470470168806A0968890663
S31508001F0000F19D800021C185016851E8031F026820
S31508001F1021F4807142E80313E3B1016851E8031F15
S31508001F20026821F4807142E803139BB1016851E805
S31508001F30031F026821F4807142E8031353B1016854
S31508001F4051E8031F026821F4807142E80313002B4D
S31508001F50DAD100BF016851E8051F026821F00101C6
S31508001F6042E80513BBB3016851E8051F026821F072
S31508001F70010142E8051373B3016851E8051F0268B9
S31508001F8021F0010142E805132BB3016851E8051F4A
S31508001F90026821F0010142E80513002BDAD11AE0A4
S31508001FA0016851E8051F026821F0400142E805135F
S31508001FB0DBB1016851E8051F026821F0400142E8DB
S31508001FC0051393B1016851E8051F026821F0400125
S31508001FD042E805134BB1016851E8051F026821F074
S31508001FE0400142E80513002BDAD120218164016BF8
S31508001FF0012924D1016851E8031F026821F0100164
S3150800200042E80313DBB1016851E8031F026821F0B7
S31508002010100142E8031393B1016851E8031F0268EF
S3150800202021F0100142E803134BB1016851E8031F80
S31508002030026821F0100142E80313002BDAD10021CF
S315080020404163006B70470000806A01214163006BA1
S315080020507047000081B040F27860C2F20000816CDF
S31508002060222921D18268B2F5805F09D10269816A85
S3150800207052B9026852686FF35F2221F8022B0DE00D
S315080020800369816A1A4302D10268526803E002684A
S31508002090526802F07F020A70816A01318162C18D3D
S315080020A001390A04C18501D001B070470168CA68C0
S315080020B022F02002CA60CA6822F48072CA604A699D
S315080020C022F001024A612021816400214163026BEA
S315080020D0012AE9D1016300BF016851E8031F0268BC
S315080020E021F0100142E80313DBB1016851E8031F30
S315080020F0026821F0100142E8031393B1016851E820
S31508002100031F026821F0100142E803134BB101686E
S3150800211051E8031F026821F0100142E80313002B5F
S31508002120DAD100680168C906BED5002100910168A8
S31508002130009140680090009801B07047B0B582B031
S3150800214040F27864C2F2000420680168C90640F1CA
S315080021504E81002100910168009141680091009923
S31508002160016841684169626C212A6BD111F08001CE
S3150800217068D000BF206850E8050F216820F080006D
S3150800218041E80502DAB1206850E8050F216820F019
S31508002190800041E8050292B1206850E8050F2168E1
S315080021A020F0800041E805024AB1206850E8050F92
S315080021B0216820F0800041E80502002ADAD1A06BE8
S315080021C0C0B1416A022910D10168D0E910230D680F
S315080021D025F00E050D600D6825F001050D6001213D
S315080021E001FA03F35360416201E00421C16300214F
S315080021F0016200BF206850E8030F216820F0C00084
S3150800220041E80302DAB1206850E8030F216820F09C
S31508002210C00041E8030292B1206850E8030F216824
S3150800222020F0C00041E803024AB1206850E8030FD5
S31508002230216820F0C00041E80302002ADAD12020F4
S31508002240606420684169A26C222A40F0BD8011F0C2
S31508002250400100F0B98000BF206850E8050F2168EA
S3150800226020F0400041E80502DAB1206850E8050F81
S31508002270216820F0400041E8050292B1206850E844
S31508002280050F216820F0400041E805024AB12068A0
S3150800229050E8050F216820F0400041E80502002AB1
S315080022A0DAD1E06BC0B1416A022910D10168D0E9E0
S315080022B010230D6825F00E050D600D6825F0010543
S315080022C00D60012101FA03F35360416201E0042124
S315080022D0C1630021016200BF206850E8030F21682E
S315080022E020F4907041E80302BAB3206850E8030F5F
S315080022F0216820F4907041E8030272B3206850E820
S31508002300030F216820F4907041E803022AB320687D
S3150800231050E8030F216820F4907041E80302002A70
S31508002320DAD11AE0206850E8050F216820F001008C
S3150800233041E80502DAB1206850E8050F216820F067
S31508002340010041E8050292B1206850E8050F2168AE
S3150800235020F0010041E805024AB1206850E8050F5F
S31508002360216820F0010041E80502002ADAD1206B35
S31508002370012824D1206850E8030F216820F01000B6
S3150800238041E80302DAB1206850E8030F216820F01B
S31508002390100041E8030292B1206850E8030F216853
S315080023A020F0100041E803024AB1206850E8030F04
S315080023B0216820F0100041E80302002ADAD1202023
S315080023C0A06400202063206840F2E431C2F20001D4
S315080023D0096840F620424968C2F20002C1F12401A8
S315080023E0117040F6F831C2F2000101220A70016844
S315080023F0C368426901F02F05202D03F0200505D199
S3150800240025B102B0BDE8B040FFF724BE5FEA017C03
S315080024101EBF02F0010E03F4907212EB0E0240F09A
S31508002420BC80226B012A05D111F0100218BF13F0E7
S31508002430100227D10A0617D513F0800214D0616C52
S31508002440212940F08682A268216AB2F5805F40F0B1
S3150800245077822269002A40F0738231F8022B6FF3E3
S315080024605F22426021626FE2490640F1728213F0F0
S31508002470400100F06E82C16821F04001C160202051
S31508002480606466E200210191016801914168019149
S3150800249001994069400600F18A80A08DE18DE28DA0
S315080024A0002A18BF884200F05482206850E8030FBB
S315080024B0216820F4907041E80302BAB3206850E816
S315080024C0030F216820F4907041E8030272B3206874
S315080024D050E8030F216820F4907041E803022AB3FC
S315080024E0206850E8030F216820F4907041E8030241
S315080024F0002ADAD11AE0206850E8050F216820F092
S31508002500010041E80502DAB1206850E8050F2168A4
S3150800251020F0010041E8050292B1206850E8050F55
S31508002520216820F0010041E805024AB1206850E818
S31508002530050F216820F0010041E80502002ADAD1DA
S315080025402020A06400202063206850E8030F21683B
S3150800255020F0100041E80302DAB1206850E8030FC2
S31508002560216820F0100041E8030292B1206850E883
S31508002570030F216820F0100041E803024AB12068E1
S3150800258050E8030F216820F0100041E80302002AF2
S31508002590DAD10220606302B0B0BDCA0718BF13F4CF
S315080025A0807240F0C3804A0700F1C680CBE0E06B3A
S315080025B0016849688AB2002A00F0CB81A38D9A4245
S315080025C080F0C781E1858069202800F0D2812068E3
S315080025D050E8030F216820F4807041E80302DAB15D
S315080025E0206850E8030F216820F4807041E8030250
S315080025F092B1206850E8030F216820F4807041E802
S3150800260003024AB1206850E8030F216820F480705D
S3150800261041E80302002ADAD1206850E8050F21684C
S3150800262020F0010041E80502BAB3206850E8050F1A
S31508002630216820F0010041E8050272B3206850E8DD
S31508002640050F216820F0010041E805022AB3206839
S3150800265050E8050F216820F0010041E80502002A2C
S31508002660DAD11AE0206850E8050F216820F040000A
S3150800267041E80502DAB1206850E8050F216820F024
S31508002680400041E8050292B1206850E8050F21682C
S3150800269020F0400041E805024AB1206850E8050FDD
S315080026A0216820F0400041E80502002ADAD12020FE
S315080026B0A06400202063206850E8030F216820F0FA
S315080026C0100041E80302DAB1206850E8030F2168D8
S315080026D020F0100041E8030292B1206850E8030F89
S315080026E0216820F0100041E803024AB1206850E84A
S315080026F0030F216820F0100041E80302002ADAD10E
S31508002700E06B416A022940F030810168D0E9102364
S315080027100D6825F00E050D600D6825F001050D60A4
S31508002720012101FA03F35360416220E1E26C42F0B1
S315080027300102E2644A0706D5BEF1000F03D0E26C37
S3150800274042F00202E2648A0706D5BEF1000F03D002
S31508002750E26C42F00402E264BCF1000F09D545EAD6
S315080027600E02B2FA82F2520903D1E26C42F0080272
S31508002770E264E26C002A00F0EC8011F0200118BF38
S31508002780002D02D0FFF766FC20684069E16C00F076
S31508002790400001F00801401800F0CE80206850E89B
S315080027A0030F216820F4907041E80302BAB3206849
S315080027B050E8030F216820F4907041E8030272B3D1
S315080027C0206850E8030F216820F4907041E803025E
S315080027D02AB3206850E8030F216820F4907041E876
S315080027E00302002ADAD11AE0206850E8050F2168AA
S315080027F020F0010041E80502DAB1206850E8050F2B
S31508002800216820F0010041E8050292B1206850E8ED
S31508002810050F216820F0010041E805024AB1206849
S3150800282050E8050F216820F0010041E80502002A5A
S31508002830DAD1206B012824D1206850E8030F2168DB
S3150800284020F0100041E80302DAB1206850E8030FCF
S31508002850216820F0100041E8030292B1206850E890
S31508002860030F216820F0100041E803024AB12068EE
S3150800287050E8030F216820F0100041E80302002AFF
S31508002880DAD12020A0640020206320684069400631
S315080028905FD5206850E8050F216820F0400041E820
S315080028A00502DAB1206850E8050F216820F04000DB
S315080028B041E8050292B1206850E8050F216820F02A
S315080028C0400041E805024AB1206850E8050F216832
S315080028D020F0400041E80502002ADAD1E06BC0B3D7
S315080028E041F67951C0F600018163416A022945D152
S315080028F00268116821F00E0111602F211368C4F2D5
S3150800290002018A4240F20401C4F2020123F00103E3
S31508002910136036DD3023C4F202039A423DD04423C5
S31508002920C4F202039A423BD05823C4F202039A42E5
S315080029303BD14FF4803340E00020E06402B0B0BDE4
S315080029404A1C226209784160E18C01390A04E18453
S3150800295001D002B0B0BDC16821F08001C160C16874
S3150800296041F04001C16002B0B0BD0421C16300213D
S31508002970016202206063E08D02B0B0BD0421C1632C
S3150800298020E00823C4F202039A420CD01C23C4F2A6
S3150800299002039A4209D110230FE04FF480730CE02A
S315080029A04FF4805309E0012307E001F168054FF071
S315080029B08073AA4208BF4FF480130B60012141625D
S315080029C00021016202B0BDE8B040FFF7D5B90000AA
S315080029D02DE9F04F87B08346B0F902008A46059084
S315080029E0BBF90A0002F037FE4EF64E424CF2EC43B3
S315080029F0C4F6C462C4F21E0302F044FE02F0FCFDF3
S31508002A0040F2C864002200210AEB4A08C2F2000418
S31508002A10ABF804000691ABF80A2004EBC80903F0EA
S31508002A200BF954F838100446D9E90407D9F80860B0
S31508002A3002F052FF0546C9F804003846294602F056
S31508002A404BFF0146284602F0E5FF0746C9F80C0089
S31508002A502046314603F050FA394603F081F93146EB
S31508002A6002F03AFF0446C9F808004FF07E5039468E
S31508002A70059FD94603F040FA294603F071F940F25A
S31508002A80C861C2F2000141F83800204603F0B8F8E0
S31508002A9040F6C8210646C2F200014C200AFB001483
S31508002AA03046CDF810A0ABF8006003F0C5F805462F
S31508002AB0384603F0C1F829468246C4E9030503F0FF
S31508002AC01BFAE56A8346A0612846002102F06CFFDE
S31508002AD02BF0004830B94046294602F073FF00281B
S31508002AE040F0F180256B002128460022069202F06C
S31508002AF05BFF30B94046294602F079FF002840F0CE
S31508002B00E2800296049E40F6C8214C20C2F20001DB
S31508002B1006FB0010D0E91051876C04F114000691E9
S31508002B2003902846002102F03FFF58B1069800217D
S31508002B3002F03AFF30B13846002102F035FF08B1FD
S31508002B4020681AE03846594602F0C6FE002101956B
S31508002B50054602F037FF06463846594603F0CCF9D3
S31508002B60002E049E18BF2846069903F0F9F802F0CD
S31508002B7037FC019903F0F4F8206040F6C82459465A
S31508002B80C2F2000403F0ECF84C2106FB01410546AD
S31508002B90CF6BC8613846002102F006FF0695B0B92A
S31508002BA04046394602F00EFFC8B900212AF0004017
S31508002BB0C4F2163102F01BFF88B94046394602F0C6
S31508002BC00FFF90B94C2006FB0040056A23E0002160
S31508002BD02AF00040C4F2163102F0FBFE28B94C2058
S31508002BE006FB00400025056215E040F6C8214C208A
S31508002BF0C2F2000106FB001459466068256A03F014
S31508002C00AFF80146284602F067FE206240F6C8245F
S31508002C100546C2F200044C2006FB004603980168EC
S31508002C20584603F069F9B168B46B03F099F882461F
S31508002C3070622846214602F0C5FE00282F4684F019
S31508002C40004818BF274604D13846414602F0C1FE5F
S31508002C5040B93846414602F0CAFE002818BF474622
S31508002C603D4637620699504602F036FE294602F07E
S31508002C7033FE049A40F6C8234C21C2F2000302FB35
S31508002C800137064647F8280FFC68214602F09AFEE7
S31508002C903546002818BF254684F0004404D1284646
S31508002CA0214602F096FE40B92846214602F09FFECC
S31508002CB0002818BF25462E463D6006960398059FB0
S31508002CC0029EC0F800B0069802F09AFFB91B502978
S31508002CD0A9F8060001DD012103E011F1500F29DAF8
S31508002CE0FF2189F8081099F9081001292FD0A1B1F8
S31508002CF0013170D199F8E61000294BD001296AD123
S31508002D0099F8DC1008296CD004296ED00029D9F866
S31508002D100C1014BF403134316AE099F8DC000828F9
S31508002D2045D0042847D00028D9F80C0014BF4030F5
S31508002D30343043E0002907EB0602D8BF5142502938
S31508002D40D1DC002FC7DCB7F1FF3FCCDCC8E799F828
S31508002D50E61081B101293ED199F8DC10082959D02D
S31508002D6004295DD00029D9F80C1000F5E16014BFDC
S31508002D700864486359E099F8DC10082963D00429E7
S31508002D8067D00029D9F80C1000F5E16014BF086473
S31508002D90486363E099F8DC1008297CD004297ED0C2
S31508002DA00029D9F80C1014BF403134317AE0D9F82B
S31508002DB00C003C3002E0D9F80C00383000210160E4
S31508002DC099F8DD00082809D0042856D0A0B3D9F808
S31508002DD074000021016407B0BDE8F08FD9F87400CB
S31508002DE055E0D9F80C103C3102E0D9F80C1038310E
S31508002DF000220A6099F8DD10082965D004296BD0ED
S31508002E00002959D1D9F87410C0F5E160486307B0B4
S31508002E10BDE8F08FD9F80C1000F5E160C86304E04E
S31508002E20D9F80C1000F5E160886399F8DD000828E8
S31508002E302AD0042821D0C8B9D9F8740000214163E2
S31508002E4007B0BDE8F08FD9F80C1000F5E160C8634B
S31508002E5004E0D9F80C1000F5E160886399F8DD0004
S31508002E60082811D0042808D00028E5D0D9F874001D
S31508002E700021016407B0BDE8F08FD9F8740000217D
S31508002E80816307B0BDE8F08FD9F874000021C163EB
S31508002E9007B0BDE8F08FD9F80C103C3102E0D9F83C
S31508002EA00C10383100220A6099F8DD1008290BD079
S31508002EB0042911D00029A5D0D9F87410C0F5E1600D
S31508002EC0086407B0BDE8F08FD9F87410C0F5E16062
S31508002ED0C86307B0BDE8F08FD9F87410C0F5E16093
S31508002EE0886307B0BDE8F08F70B540F2F020C2F2F3
S31508002EF00000057E40F22016281F0228C2F20006AE
S31508002F0007D8B46F0021C4F29221204602F05AFD78
S31508002F10B8B1082D24D80120A84010F4837F1FD00B
S31508002F20B46F0021C4F23021204602F060FDC0B91A
S31508002F300021CBF68071204602F0CEFC0446B0672D
S31508002F400FE020464FF07E5102F0C6FC0025C4F281
S31508002F50922529460446B06702F034FD08B108E018
S31508002F60B46F0025C4F230252046294602F031FD0B
S31508002F7008B92C46B5674CF21D71C4F231112046CA
S31508002F8002F0EEFE0021C4F2FA3102F0A5FC02F0CE
S31508002F9037FED6F8E410A6F87400082907D00429E5
S31508002FA008D00029F16F14BF0864486370BDF16F3B
S31508002FB0C86370BDF16F886370BD000070B540F2DC
S31508002FC0F025C2F2000540F22016687CC2F200061F
S31508002FD0D6F86041B0B10021C4F2AA21204602F019
S31508002FE0F1FC78B920464FF07E5102F075FC0025B9
S31508002FF0C4F2AA2529460446C6F8600102F0E2FC96
S31508003000C8B91BE0287CC8B10021C4F2F0112046DB
S3150800301002F0EDFC90B90021CBF68071204602F053
S315080030205BFC0025C4F2F01529460446C6F8600183
S3150800303002F0CFFC10B92C46C6F860514CF21D714F
S31508003040C4F23111204602F08BFE0021C4F2FA3197
S3150800305002F042FC02F0D4FDD6F8CC11A6F85C01C9
S31508003060082908D004290AD00029D6F8641114BF03
S315080030700864486370BDD6F86411C86370BDD6F895
S315080030806411886370BD000070B540F2F025C2F285
S31508003090000540F22016287BC2F20006D6F8EC405E
S315080030A0B0B10021C4F23331204602F08BFC78B966
S315080030B020464FF07E5102F00FFC0025C4F233354E
S315080030C029460446C6F8EC0002F07CFCC0B91AE0B2
S315080030D0E87BC0B120464FF07E5102F088FC90B9DB
S315080030E00021CBF68071204602F0F6FB4FF07E51A8
S315080030F00446C6F8EC004FF07E5502F06AFC10B99B
S315080031002C46C6F8EC504CF21D71C4F2311120461B
S3150800311002F026FE0021C4F2FA3102F0DDFB02F0CD
S315080031206FFDD6F85811A6F8E800082908D0042932
S315080031300AD00029D6F8F01014BF0864486370BD99
S31508003140D6F8F010C86370BDD6F8F010886370BD65
S3150800315070B540F2F020C2F20000007E40F2201660
S31508003160811F0229C2F2000616D874680021C4F22B
S315080031702431204602F026FC00BB20464FF07E5143
S3150800318002F0AAFB0025C4F22435294604467060DD
S3150800319002F018FC90B117E00538746810F1030FB7
S315080031A00CD32046002102F022FC38B90021CBF6C8
S315080031B08071204602F090FB04467060204600218C
S315080031C0002502F006FC08B92C4675604CF21D7104
S315080031D0C4F23111204602F0C3FD0021C4F2FA31CF
S315080031E002F07AFB02F00CFD316F3080082907D017
S315080031F0042908D00029B16814BF0864486370BD63
S31508003200B168C86370BDB168886370BDBCB042F26E
S315080032100002C4F2020210684EF60C5540F0100087
S31508003220CEF20005106028684FF6FF01084040F20C
S315080032300031C0F2FA510843286040F20000C2F299
S315080032400000036844F6D351C1F26201A3FB0137BB
S315080032504FF0FF3303EB97160027B7EB166F23D112
S315080032604EF20014CEF2000444F8EC6CF026EE752B
S31508003270072644F8E87C44F8F06C2E68C6F3022664
S3150800328086F00704042C28BF0424A340033E6FEAF3
S31508003290030338BF3E46B3401B01EB7540F628438F
S315080032A0C2F2000301271F7041F2040BC4F2020B9D
S315080032B0DBF81430042643F00103CBF81430DBF8AE
S315080032C01430C4F2010603F001032993299BDBF8A5
S315080032D01830022743F08053CBF81830DBF8183043
S315080032E041F2000A03F080532993299B3368C4F2FC
S315080032F0020A67F31A633360DBF8003003F00C0345
S31508003300042B38D1DAF80030DBF8003003F00C0370
S31508003310082B66D1DBF8003003F47413B3F5E81F05
S3150800332040F0BF80136813F0060F09D1136802270F
S3150800333067F302031360136803F00703022B16D121
S31508003340DBF8003043F4E063CBF80030DBF80030FC
S3150800335043F46053CBF80030DBF8003023F0F00379
S31508003360CBF80030DAF800309B0100F19E80EFF3CD
S31508003370108072B6FEE7DBF8003003F00C03082B6A
S3150800338003D1DBF80030DB03BCD4DAF8003043F4B1
S315080033908033CAF8003040F62443C2F200031F689F
S315080033A0DAF80060B603AFD41E68F61B642E78D828
S315080033B0DAF80060B603A7D41E68F61B642E70D828
S315080033C0DAF80060B6039FD41E68F61B642E68D828
S315080033D0DAF80060B60397D41E68F61B642EDFD9A8
S315080033E05FE06027C4F2422700233B6040F624438F
S315080033F0C2F200031E68DAF80040A4011CD51C6856
S31508003400A41B022C4DD8DAF80040A40114D51C6878
S31508003410A41B022C45D8DAF80040A4010CD51C6878
S31508003420A41B022C3DD8DAF80040A40104D51C6878
S31508003430A41B022CDFD934E0DBF8006026F4003642
S31508003440CBF80060DBF8006026F4741606F5E8167B
S31508003450CBF8006001263E601F68DAF80060B60106
S315080034603FF560AF1E68F61B022E1AD8DAF8006020
S31508003470B6013FF557AF1E68F61B022E11D8DAF8CB
S315080034800060B6013FF54EAF1E68F61B022E08D83F
S31508003490DAF80060B6013FF545AF1E68F61B022E46
S315080034A0DBD9EFF3108072B6FEE7DBF800300227AF
S315080034B067F3010340F62444CBF80030C2F2000457
S315080034C0236841F28837DBF8006006F00C06082E00
S315080034D025D02668F61ABE423FF649AFDBF80060EB
S315080034E006F00C06082E1AD02668F61ABE423FF6D3
S315080034F03EAFDBF8006006F00C06082E0FD02668F3
S31508003500F61ABE423FF633AFDBF8006006F00C064B
S31508003510082E04D02668F61ABE42D4D927E71368BF
S3150800352003F00703032B0AD31368022767F3020382
S315080035301360126802F00702022A7FF418AFDBF85C
S315080035400020042363F30A22CBF80020DBF80020CE
S3150800355022F46052CBF80020DBF8007007F00C026A
S31508003560082A41F20022C0F27A0216D1C7F3834331
S315080035700FF62C66F35CFF0305D440F60012C0F282
S315080035803D025A4309E0DBF800700FF62466C7F3DC
S315080035904047F75D5A43B2FBF7F2DBF800300FF607
S315080035A01467C3F30313FB5C4EF20016DA40A2FB62
S315080035B001134FF0FF3101EB93110027CEF20006FD
S315080035C0B7EB116F026025D140F62840C2F2000021
S315080035D0027846F8EC1CF021E9750721012A46F81D
S315080035E0E87C46F8F01C15D129684FF0FF33C1F383
S315080035F0022181F00702042A28BF0422033903FAAC
S3150800360002F238BF0021D24302FA01F10901E97535
S31508003610012101702C97DBF8140042F6004940F0AE
S315080036202000CBF81400DBF81400C4F2010900F0FE
S31508003630200004900498DBF8140040F2000840F0DB
S315080036400400CBF81400DBF8140029AC00F00400E1
S3150800365004900498DBF81400C1F2310840F0080021
S31508003660CBF81400DBF81400012600F008000490DB
S3150800367004984FF480402990A9F500502146CDF8CA
S31508003680A8802B960390FCF77FFF4FF4C850CDE92E
S3150800369029084846A0F510584EF20019404621461A
S315080036A04EF20D44CEF200092B96CEF20004FCF73A
S315080036B06BFF28684FF0FF36C0F3022181F007023E
S315080036C00420042A28BF0246033906FA02F24FF0FC
S315080036D0070338BF394623EA020202FA01F1090153
S315080036E0A1724FF40001C9F800102968C1F302213C
S315080036F081F00702042A28BF0246033906FA02F2B5
S3150800370038BF394623EA020202FA01F10901E176D5
S315080037104FF48071C9F80410DBF8101041F001016C
S31508003720CBF81010DBF8101001F001012991299946
S3150800373029684FF400512770C9F800102968C1F3A9
S31508003740022181F00702042A28BF0246CB1E06FA88
S3150800375002F24FF0050121EA020238BF3B469A40C1
S31508003760120162704FF48042C9F800202A68C2F339
S31508003770022282F00703042B28BF0346033A06FAFF
S3150800378003F338BF3A4621EA030303FA02F21201A9
S31508003790A2704FF40042C9F800202A68C2F3022238
S315080037A082F00703042B38BF184606FA00F0033ADE
S315080037B021EA000038BF3A4690400001E0704FF415
S315080037C08030C9F8000042F6004440F28840C4F24E
S315080037D00104C2F2000040F2CF2140F2E732802312
S315080037E02C97CDE92A77C0E90041C0E90272C0E901
S315080037F004778361FCF7CCFF18B1EFF3108072B63B
S31508003800FEE740F288474FF48050C2F2000729903D
S3150800381029A93846FDF78EF818B1EFF3108072B66D
S31508003820FEE7F86B012804D1EFF3108072B600BFEB
S31508003830FEE70220CDF808803864386840F2FF7841
S3150800384042688168C4F2000840F2004622F070021D
S315080038504045C4F20006426005DCB0F1804F0AD04C
S31508003860B04208D00AE0A04205D040F60002C4F2F1
S315080038700002904202D121F0800181600120386463
S3150800388040F258500021C2F2000040F60F62F96378
S315080038902C91CDE92A11C0E90061C0E90212016143
S315080038A08161FCF775FF20B1EFF3108072B600BF97
S315080038B0FEE74FF48050299040F25850C2F20000BB
S315080038C029A9FDF737F820B1EFF3108072B600BFCB
S315080038D0FEE740F25859C2F200094846FDF792F948
S315080038E018B1EFF3108072B6FEE7D9F83C0001284C
S315080038F003D1EFF3108072B6FEE70220C9F8400044
S31508003900D9F800004268816822F07002404542609A
S3150800391005DCB0F1804F0AD0B04208D00AE0A042D8
S3150800392005D040F60002C4F20002904202D121F00E
S315080039308001816040F2585C0121C2F2000C4FF010
S315080039400008CCF84010CCF83C80016A026A6FF097
S31508003950020722F00102026242688369A04243F02C
S31508003960600308BF6FF00E0701EA070123F013038F
S3150800397008BF22F4407242608361C0F83480016255
S3150800398081696FF0200741F0080181618169A042D1
S3150800399021F00401816181698161016A026A22F06C
S315080039A0100202624268836908BF6FF0E00723F4D9
S315080039B0E64301EA070103F5C04308BF22F4406263
S315080039C042608361C0F83880016281696FF40077CC
S315080039D041F4006181618169A04221F480618161BD
S315080039E081698161CCF83C80016A026A22F480729E
S315080039F002624268C36908BF6FF4606743F06003F8
S31508003A0001EA070123F0130308BF22F4405242607B
S31508003A10C361C0F83C800162C169A04241F0080157
S31508003A20C161C16921F00401C161C169C161016A4D
S31508003A30026A21F4005122F4805202624268C36984
S31508003A4008BF22F4804223F4E64303F5C0434260EC
S31508003A50C361C0F840800162C16941F40061C16177
S31508003A60C16921F48061C161C169C161CCF83C803A
S31508003A70FDF728F840F2C05006F58061C2F2000052
S31508003A80472244F61F6380E806018021CDF8B080FE
S31508003A90CDE92A88C0E903388161FCF779FE20B1AF
S31508003AA0EFF3108072B600BFFEE74FF480502990FE
S31508003AB040F2C050C2F2000029A9FCF73BFF18B13A
S31508003AC0EFF3108072B6FEE740F2C050C2F2000073
S31508003AD0FDF798F818B1EFF3108072B6FEE740F2DA
S31508003AE0C050C2F20000C06B012803D1EFF310806A
S31508003AF072B6FEE740F2C0510220C2F20001086425
S31508003B00086840F2FF7342688168C4F2000322F035
S31508003B1070029842426005DCB0F1804F0ED040F248
S31508003B20004207E042F60042C4F20102904205D084
S31508003B3040F60002C4F20002904202D121F0800150
S31508003B40816040F2C05C0121C2F2000C4FF000090E
S31508003B50CCF84010CCF83C90016A026A42F600465E
S31508003B6022F001020262426883696FF00207C4F21A
S31508003B70010643F06003B04208BF6FF00E0701EA82
S31508003B80070123F0130308BF22F4407242608361E1
S31508003B90C0F83490016281696FF0200741F008018E
S31508003BA081618169B04221F0040181618169816185
S31508003BB0016A026A22F0100202624268836908BF3B
S31508003BC06FF0E00723F4E64301EA070103F5C04373
S31508003BD008BF22F4406242608361C0F838900162EF
S31508003BE081696FF4007741F4006181618169B042AF
S31508003BF021F48061816181698161CCF83C90016A18
S31508003C00026A22F4807202624268C36908BF6FF4CE
S31508003C10606743F0600301EA070123F0130308BF56
S31508003C2022F440524260C361C0F83C900162C16907
S31508003C30B04241F00801C161C16942F6444621F02B
S31508003C400401C161C169C4F20106C161016A026A5F
S31508003C5021F4005122F4805202624268C36908BF07
S31508003C6022F4804223F4E64303F5C0434260C3616D
S31508003C70C0F840900162C16941F40061C161C1693F
S31508003C8021F48061C161C169C161CCF83C90FCF73F
S31508003C9019FF40F22C47C2F200074FF400710123C6
S31508003CA006F56F7002244FF01008C7E905310A239C
S31508003CB04FF4827287E80502C7E90394C7F81C80A7
S31508003CC0C7E90899C7E90A937B6D53B14FF0000C11
S31508003CD04FF0000E4FF0010B4FF0020A00250023AB
S31508003CE075E040F22C46C2F200064FF00009C6F80D
S31508003CF05090CDF8AC90DBF8140029A940F4805018
S31508003D00CBF81400DBF8140000F4805004900498F3
S31508003D10DBF8140040F00800CBF81400DBF81400B8
S31508003D2000F00800049004982820CDE9290403200F
S31508003D302C900398FCF728FC0421C4F201010868BA
S31508003D40802240F0E06040F00100086040F20C314B
S31508003D50C2F20001C1E9032943F60002AAF57D6013
S31508003D60C4F2010281E80103082002F548424FF433
S31508003D708053C1E910204FF23002C1E90599CB61A1
S31508003D804C62CFF6FF725AF8023040F2091767F311
S31508003D900D134AF802300122C1F83C904A62C1F874
S31508003DA02090B1648E6229684EF20D41CEF2000170
S31508003DB081F816904EF20011CEF20001486006F125
S31508003DC0180E96E82D0C9EE80241D6F828C040F257
S31508003DD02C47C2F200077C65066802F4827226F058
S31508003DE04006066003F40446324405F400652A4496
S31508003DF00AF002031A440BF001031A4401F4007393
S31508003E001A4408F038031A440EF080031A430CF4D7
S31508003E1000531A430260042202EA11414160C16953
S31508003E20002321F40061C1610120BB65786540F279
S31508003E30F040C2F200004FF0804140F60F622C932A
S31508003E40CDE92A33C0E90013C0E902320361836170
S31508003E50FCF79EFC18B1EFF3108072B6FEE74FF43C
S31508003E608050299040F2F040C2F2000029A9FCF7E0
S31508003E7061FD18B1EFF3108072B6FEE740F2F0402C
S31508003E80C2F200008246FCF7BDFE18B1EFF31080BF
S31508003E9072B6FEE7DAF83C00012803D1EFF310808A
S31508003EA072B6FEE70220CAF84000DAF8000051466A
S31508003EB0426840F2FF738168C4F2000322F0700280
S31508003EC09842426005DCB0F1804F0ED040F20042C5
S31508003ED007E042F60042C4F20102904205D040F6DD
S31508003EE00002C4F20002904202D121F080018160F2
S31508003EF001210025CAF84010CAF83C50016A026A36
S31508003F0042F6004622F001020262426883696FF0B7
S31508003F100207C4F2010643F06003B04208BF6FF01F
S31508003F200E0701EA070123F0130308BF22F44072C3
S31508003F30426083614563016281696FF0200741F041
S31508003F40080181618169B04221F0040181618169BA
S31508003F508161016A026A22F010020262426883697C
S31508003F6008BF6FF0E00723F4E64301EA070103F50B
S31508003F70C04308BF22F440624260836185630162E0
S31508003F8081696FF4007741F4006181618169B0420B
S31508003F9021F48061816181698161CAF83C50016AB6
S31508003FA0026A22F4807202624268C36908BF6FF42B
S31508003FB0606743F0600301EA070123F0130308BFB3
S31508003FC022F440524260C361C5630162C169B042CE
S31508003FD041F00801C161C16921F00401C161C169EB
S31508003FE0C161016A026A21F4005122F48052026218
S31508003FF04268C36908BF22F4804223F4E64303F506
S31508004000C0434260C36105640162C16941F400614D
S31508004010C161C16921F48061C161C169C161CAF820
S315080040203C50FCF74FFD40F20040C4F2000040F25D
S31508004030786400F58040C2F200044FF4E1370C269C
S31508004040C4E900072046C4E90255C4E90456C4E990
S315080040500655FCF733FE18B1EFF3108072B6FEE78B
S3150800406040F2286043F60001C2F20000C4F20101E2
S31508004070C0E90017C0E90255C0E90456C0E906556B
S31508004080FCF71CFE18B1EFF3108072B6FEE740F29B
S31508004090F020C2F200004FF080210160416040F23A
S315080040A0C86041F26F214BF2177241F26F23C2F2D8
S315080040B00000C3F683214FF0000BC3F6D102C3F606
S315080040C00323C0E9001BC0E902BBC0E90423C0E919
S315080040D0061BC0E908BBC0E90A23C0E90C1BC0E9F6
S315080040E00EBBC0E91023C0E9121BC0E914BBC0E926
S315080040F0162340F27C00C2F200000121017040F252
S315080041007400C2F20000017040F27800C2F20000AA
S31508004110017040F21C10C2F20000017040F2141047
S31508004120C2F20000017040F21810C2F200002268C4
S315080041300170D06840F01000D060FCF73DFF40F6F3
S31508004140C820C2F200000022C4F240120023002652
S31508004150002500F14C09C4F24003C4F2C826C4F293
S31508004160A00589E82C0000F198090024C0E90F652C
S31508004170C0E9226589E82C00C0E93565C0E94865CB
S3150800418040F2585540F2000C40F2000E4FF08048BD
S31508004190C4F2E0040021002700F1E409C2F2000598
S315080041A0C4F2C84CC4F2E14E80E81C00C4F25421A3
S315080041B0C4F22017C0E90BB8C0E91EB8C0E931B887
S315080041C089E81C00C0E944B8D5F800802C1DC0E970
S315080041D00DECC0E91117C0E920ECC0E92417C0E9C5
S315080041E033ECC0E93717C0E946ECC0F82811C0F827
S315080041F02C7129A821464C22CDF8A080FCF721F87D
S3150800420005F150078FCF6E6E279021A80DF1100982
S315080042108CC0CDE91F814846214648222496019440
S31508004220FCF70FF805F14C078FCFD5E918651E90F6
S3150800423016A88EC0CDE91A6540F22875DDF87C808F
S31508004240C2F2000505F1100049464822C5F80C805F
S31508004250FBF7F7FF1E98A86516981799189A199BE1
S315080042601A9F1B9E2E67EF66AB666A662966E86527
S31508004270082085F8DC00289F05F1780029A94C223A
S315080042806F67FBF7DEFF2798C5F8C40020982199C9
S31508004290229A239B249EC5F8D860C5F8D430C5F861
S315080042A0D020C5F8CC10C5F8C8000C2085F8DD006C
S315080042B042F60040C4F20100A0F5E050C5F8E0005F
S315080042C04FF48040A5F8E40085F8E6B01E9801286A
S315080042D03FD102201E90D8F8200042F6004120F473
S315080042E08070C8F82000D8F82000C4F2010140F414
S315080042F080708845C8F8200007D142F64441C4F2C8
S315080043000101086840F40040086040F2FF70C4F2FA
S315080043100000804505DCB8F1804F0ED040F2004021
S3150800432007E042F60040C4F20100804505D040F699
S315080043300000C4F20000804505D1D8F8080000F056
S315080043400700062805D0D8F8000040F00100C8F894
S315080043500000279801284AD102202790386A42F699
S31508004360004120F480503862386AC4F2010140F4F2
S3150800437080508F42386207D142F64441C4F20101A7
S31508004380086840F40040086040F2FF70C4F200007C
S31508004390874217DCB7F1804F20D040F2004019E081
S315080043A002030405060708090A0B0C0D0E0F101068
S315080043B001020000000000000000000001020304E2
S315080043C00607080942F60040C4F20100874205D0F4
S315080043D040F60000C4F20000874204D1B86800F035
S315080043E00700062803D0386840F001003860DAF87C
S315080043F000800AF1040B0DF1A409484659464C22DF
S315080044005646CDF8A080FBF71CFF0AF1500C9CE835
S315080044108F1004AC279021A880E88C10CDE91F8165
S31508004420204659464822FBF70CFF0AF14C0E9EE837
S315080044308F40DAF864C01E9016A880E88E40CDF842
S315080044406CC0DDF87C8005F1F80021464822C5F8E5
S31508004450F480FBF7F6FE1E98C5F8400116981799E2
S31508004460189A199B1A9E1B9FC5F85871C5F854616E
S31508004470C5F85031C5F84C21C5F84811C5F84401AE
S31508004480082085F8C401289E05F5B07049464C22D7
S31508004490C5F85C61FBF7D5FE2798C5F8AC012098EE
S315080044A02199229A239B249FC5F8C071C5F8BC316F
S315080044B0C5F8B821C5F8B411C5F8B0010C2085F8BF
S315080044C0C5010298C5F8C8014FF48070A5F8CC015B
S315080044D0012085F8CE011E9801283FD102201E90A2
S315080044E0D8F8200042F6004120F48070C8F8200071
S315080044F0D8F82000C4F2010140F480708845C8F855
S31508004500200007D142F64441C4F20101086840F48C
S315080045100040086040F2FF70C4F20000804505DCE8
S31508004520B8F1804F0ED040F2004007E042F6004056
S31508004530C4F20100804505D040F60000C4F2000030
S31508004540804505D1D8F8080000F00700062805D0F0
S31508004550D8F8000040F00100C8F8000027980128A4
S3150800456038D102202790306A42F6004120F4805064
S315080045703062306AC4F2010140F480508E423062E3
S3150800458007D142F64441C4F20101086840F40040EC
S31508004590086040F2FF70C4F20000864205DCB6F1FE
S315080045A0804F0ED040F2004007E042F60040C4F2C9
S315080045B00100864205D040F60000C4F2000086429B
S315080045C004D1B06800F00700062803D0306840F030
S315080045D001003060DAF800600DF1A4094846594632
S315080045E0442257462896FBF72CFEDAE912010AF10F
S315080045F0140E27902091DAE914011F96CDE92101BE
S31508004600DAE91601DAE90323CDE92301DAE9180123
S31508004610CDE90623CDE925019EE84150DAE9018175
S31508004620CDE90806D7E90F60CDE90481DAE909B1D1
S315080046300AF12C0A9AE80C051390786CCDE90CB1AE
S31508004640CDF8408007F15808796ECDE90ACECDE954
S315080046500E23CDE911A61E90D7E912CED7E9142369
S3150800466098E841011D911AA9CDE91823CDE916CE7E
S3150800467081E84101DDF87C80C5F8DC81049805995C
S31508004680069A079B089F099EC5F8F461C5F8F0715C
S31508004690C5F8EC31C5F8E821C5F8E411C5F8E0011C
S315080046A00A980B990C9A0D9B0E9F0F9EC5F80C62E3
S315080046B0C5F80872C5F80432C5F80022C5F8FC1119
S315080046C0C5F8F80110981199129A139BC5F81C326F
S315080046D0C5F81822C5F81412C5F810021E98C5F8B0
S315080046E0200216981799189A199B1A9F1B9EC5F8A7
S315080046F03862C5F83472C5F83032C5F82C22C5F8C8
S315080047002812C5F824021C981D994422C5F840129F
S31508004710C5F83C02002085F8AC02DDF8A0A005F536
S3150800472012704946C5F844A2FBF78BFD2798C5F8D1
S315080047308C0220982199229A239B249E259FC5F8AE
S31508004740A472C5F8A062C5F89C32C5F89822C5F8C7
S315080047509412C5F890022698C5F8A802042085F890
S31508004760AD020298C5F8B0024FF40060A5F8B4028D
S31508004770012085F8B6021E9801283FD102201E9016
S31508004780D8F8200042F6004120F00100C8F82000C1
S31508004790D8F82000C4F2010140F001008845C8F8A5
S315080047A0200007D142F64441C4F20101086840F4EA
S315080047B00040086040F2FF70C4F20000804505DC46
S315080047C0B8F1804F0ED040F2004007E042F60040B4
S315080047D0C4F20100804505D040F60000C4F200008E
S315080047E0804505D1D8F8080000F00700062805D04E
S315080047F0D8F8000040F00100C8F800002798012802
S315080048003FD102202790DAF8200042F6004120F036
S315080048101000CAF82000DAF82000C4F2010140F0BE
S3150800482010008A45CAF8200007D142F64441C4F26E
S315080048300101086840F40040086040F2FF70C4F2C5
S315080048400000824505DCBAF1804F0ED040F20040E8
S3150800485007E042F60040C4F20100824505D040F662
S315080048600000C4F20000824505D1DAF8080000F01D
S315080048700700062805D0DAF8000040F00100CAF85B
S31508004880000040F25859C2F20009D9F8006029AC74
S315080048900199204644222896FBF7D3FCD9E9120150
S315080048A009F1180E27902091D9E914011F96CDE930
S315080048B02101D9E9160109F10407CDE92301D9E94E
S315080048C018019EE84050CDE925018FCF099604AE20
S315080048D009F1240A8FC69AE80F05D9E90F67CDE9C9
S315080048E00ACE0DF1300C8CE80F00D9F84400139766
S315080048F009F15007CDE911A61E90D9E912CE8CCF41
S31508004900D9E91760D9F86410CDF840800DF1600830
S3150800491088E88C00CDE916CE1D91CDE91B60DDF83F
S315080049207CA04FF00008C5F8C4A204980599069A19
S31508004930079B089F099EC5F8DC62C5F8D872C5F8BA
S31508004940D432C5F8D022C5F8CC12C5F8C8020A98E0
S315080049500B990C9A0D9B0E9F0F9EC5F8F462C5F82D
S31508004960F072C5F8EC32C5F8E822C5F8E412C5F8C5
S31508004970E00210981199129A139BC5F80433C5F8EA
S315080049800023C5F8FC12C5F8F8021E98C5F80803F6
S3150800499016981799189A199B1A9F1B9EC5F8206393
S315080049A0C5F81C73C5F81833C5F81423C5F81013D1
S315080049B0C5F80C031C981D994422C5F82813C5F898
S315080049C0240385F89483DDF8A0B005F54C702146DC
S315080049D0C5F82CB3FBF735FC2798C5F8740320985F
S315080049E02199229A239B249E259FC5F88C73C5F886
S315080049F08863C5F88433C5F88023C5F87C13C5F8E1
S31508004A0078032698C5F89003042085F8950303983B
S31508004A1085F89E83C5F898034FF48050A5F89C0343
S31508004A201E9801283FD102201E90DAF8200042F68F
S31508004A30004120F00100CAF82000DAF82000C4F28C
S31508004A40010140F001008A45CAF8200007D142F664
S31508004A504441C4F20101086840F40040086040F28D
S31508004A60FF70C4F20000824505DCBAF1804F0ED013
S31508004A7040F2004007E042F60040C4F201008245D9
S31508004A8005D040F60000C4F20000824505D1DAF8E8
S31508004A90080000F00700062805D0DAF8000040F004
S31508004AA00100CAF80000279801283FD10220279064
S31508004AB0DBF8200042F6004120F01000CBF8200079
S31508004AC0DBF82000C4F2010140F010008B45CBF85A
S31508004AD0200007D142F64441C4F20101086840F4B7
S31508004AE00040086040F2FF70C4F20000834505DC10
S31508004AF0BBF1804F0ED040F2004007E042F600407E
S31508004B00C4F20100834505D040F60000C4F2000057
S31508004B10834505D1DBF8080000F00700062805D014
S31508004B20DBF8000040F00100CBF8000040F6244016
S31508004B30C2F20000006840F62441C2F2000109688A
S31508004B40091AC82917D840F62441C2F20001096893
S31508004B50091AC8290FD840F62441C2F2000109688B
S31508004B60091AC82907D840F62441C2F20001096883
S31508004B70091AC929DFD340F2C055C2F200052868D0
S31508004B8005F104080DF1A409169048464146442249
S31508004B90FBF757FB05F1480E9EE88F40D5E9186CE0
S31508004BA0209004A880E88E4040F220170020C2F228
S31508004BB00007C4F23020B8674FF47770CDE9096C66
S31508004BC0A7F87400169D07F1800049464422FD6740
S31508004BD0FBF737FB2098C7F8C400DDF810C0059925
S31508004BE0069A079B089E0998C7F8DC00C7F8D8609C
S31508004BF0C7F8D430C7F8D020C7F8CC10C7F8C8C053
S31508004C000A98C7F8E0000420C7F8E40020980128AD
S31508004C1038D102202090286A42F6004120F0100080
S31508004C202862286AC4F2010140F010008D42286209
S31508004C3007D142F64441C4F20101086840F4004035
S31508004C40086040F2FF70C4F20000854205DCB5F149
S31508004C50804F0ED040F2004007E042F60040C4F212
S31508004C600100854205D040F60000C4F200008542E6
S31508004C7004D1A86800F00700062803D0286840F089
S31508004C8001002860FEF730F940F62440C2F2000021
S31508004C90006840F62441C2F200010968091AC829C9
S31508004CA017D840F62441C2F200010968091AC82932
S31508004CB00FD840F62441C2F200010968091AC8292A
S31508004CC007D840F62441C2F200010968091AC92921
S31508004CD0DFD340F2C055C2F2000528680DF1A409D9
S31508004CE01690484641464822FBF7ABFA05F14C0EAA
S31508004CF09EE80F40D5E9186C209004A880E80E407D
S31508004D000020C4F29420C7F8EC0040F22A50CDE9FE
S31508004D10086CA7F8E800169D07F1F40049464822F2
S31508004D20C7F8F050FBF78DFA2098C7F83C01DDF874
S31508004D3010C00599069A079B089E0998C7F854015A
S31508004D400820C7F85061C7F84C31C7F84821C7F89A
S31508004D504411C7F840C1C7F858012098012838D12E
S31508004D6002202090286A42F6004120F480702862CA
S31508004D70286AC4F2010140F480708D42286207D186
S31508004D8042F64441C4F20101086840F40040086054
S31508004D9040F2FF70C4F20000854205DCB5F1804F91
S31508004DA00ED040F2004007E042F60040C4F201008F
S31508004DB0854205D040F60000C4F20000854204D1C1
S31508004DC0A86800F00700062803D0286840F001000C
S31508004DD02860FEF759F940F62440C2F20000006840
S31508004DE040F62441C2F200010968091AC82917D8F1
S31508004DF040F62441C2F200010968091AC8290FD8E9
S31508004E0040F62441C2F200010968091AC82907D8E0
S31508004E1040F62441C2F200010968091AC929DFD3FC
S31508004E2040F2C056C2F2000656F8500B0DF1A4091E
S31508004E301690484641464C22FBF703FA6FCE20905F
S31508004E4004A86EC00020C4F20C20C7F860014FF415
S31508004E505E70A7F85C01169D07F5B47049464C22AA
S31508004E60C7F86451FBF7EDF92098C7F8B401049820
S31508004E700599069A079B089EC7F8C861C7F8C43102
S31508004E80C7F8C021C7F8BC11C7F8B8010C20C7F885
S31508004E90CC012098012838D102202090286A42F6B1
S31508004EA0004120F480502862286AC4F2010140F4C7
S31508004EB080508D42286207D142F64441C4F201016E
S31508004EC0086840F40040086040F2FF70C4F2000031
S31508004ED0854205DCB5F1804F0ED040F2004007E070
S31508004EE042F60040C4F20100854205D040F60000B3
S31508004EF0C4F20000854204D1A86800F0070006281D
S31508004F0003D0286840F001002860FEF757F840F6FD
S31508004F102440C2F20000006840F62441C2F20001B3
S31508004F200968091AC82917D840F62441C2F20001AF
S31508004F300968091AC8290FD840F62441C2F20001A7
S31508004F400968091AC82907D840F62441C2F200019F
S31508004F500968091AC929DFD340F2C051C2F2000113
S31508004F6001F1140ED1E900089EE8205001F1080667
S31508004F704CCE1690CDE92D5CD1E9080501F1280C37
S31508004F80CDE92982CDE92B369CE84C10CDE92FE0F6
S31508004F9001F1400ED1E90E89CDE933369EE841404C
S31508004FA0CDE93152D1E913ABD1E91525CB6DCDE960
S31508004FB03790486E096ECDE935C8CDE90A1000204C
S31508004FC0C4F2F620786040F24A702096CDE908537C
S31508004FD0CDE906B2CDE904EA3880DDF858C0C7F84D
S31508004FE008C029992A9A2B9B2C9E2D9D2E983862AB
S31508004FF0FD61BE617B613A61F9602F983099319AFB
S31508005000329B339E349DBD637E633B63FA62B9620D
S31508005010786235983699379A389BBB647A643964CE
S31508005020F8632098F86404980599069A079B089EE1
S31508005030099D7D663E66FB65BA65796538650A9899
S315080050400B99F966B86600203867209801283FD181
S3150800505002202090DCF8200042F6004120F00100F2
S31508005060CCF82000DCF82000C4F2010140F0010071
S315080050708C45CCF8200007D142F64441C4F2010120
S31508005080086840F40040086040F2FF70C4F200006F
S31508005090844505DCBCF1804F0ED040F2004007E0A5
S315080050A042F60040C4F20100844505D040F60000EF
S315080050B0C4F20000844505D1DCF8080000F00700BA
S315080050C0062805D0DCF8000040F00100CCF8000006
S315080050D0FEF73EF840F29C0B4FF60070C2F2000B4A
S315080050E0C0F2C800CBF80000FF21CBF812004CF63E
S315080050F0FF008BF804108BF807108BF80A108BF852
S315080051000D10C821ABF8160040F22C40C822CCF688
S31508005110FF01C2F20000ABF80520ABF80820ABF897
S315080051200B20CBF80E10D0F850A046F2041140F22E
S31508005130F60240F20C33C0F60001C2F20002C2F2D7
S315080051400003002711E02C621020664635682843C4
S31508005150306040F22C404FF0000AC2F20000C0F85E
S3150800516050A00137082F00F0FB8007EB47000BEB38
S31508005170000595F801C01BF800600CF00100085CFA
S3150800518095F802E0D07106F00100085C0EF0010502
S315080051904D5DD073CCF34000085CD575C6F3400569
S315080051A04D5D9071CEF34000085C9573CCF3800595
S315080051B04D5D9075C6F38000085C5571CEF3800589
S315080051C04D5D5073CCF3C000085C5575C6F3C00539
S315080051D04D5D1071CEF3C000085C1573CCF3001555
S315080051E04D5D1075C6F30010085CD570CEF300153A
S315080051F04D5DD072CCF34010085CD574C6F34015EB
S315080052004D5D9070CEF34010085C9572CCF3801516
S315080052104D5D9074C6F38010085C5570CEF380150A
S315080052204D5D50724FEADC10085C5574F6094FEA7A
S31508005230DE151070885D4E5D10721674586A012866
S3150800524008D0586A012805D0586A012802D0586A39
S315080052500128F3D1BAF1010F02D14FF0010A80E714
S3150800526040F22C40C2F20000406D01287FF471AF75
S3150800527040F22C46C2F2000603207065002518206D
S31508005280B5653263B086F086B563C6E91055B5874D
S31508005290F587B06836680024B0F5004F07D1306846
S315080052A020F040003060306840F48040306040F2C2
S315080052B02C4CC2F2000CDCF8485041F2CD30C0F656
S315080052C00000E86241F2C930C0F60000286341F2E6
S315080052D0AD30C0F60000C5E90D04BCF836E0286A12
S315080052E00CF1580C01283FF42FAF01202862686A98
S315080052F001287FF428AF02206862EC63D5E9000430
S31508005300D5E910AC0394D0F8009006F10C0829F002
S3150800531001050560012505FA0CF5CAF80450C0F820
S3150800532004E0039D102D154604BF4546904685604A
S31508005330C0F80C80056845F00E050560056845F05F
S31508005340010505603068400603D4306840F0400027
S31508005350306056F8040F40F0200030600220F5E671
S3150800536040F28840C2F20000006C01282BD140F2BE
S3150800537088410220C2F200010864086840F2FF7200
S31508005380C168C4F2000241F001019042C16005DC27
S31508005390B0F1804F0ED040F2004107E042F60041DE
S315080053A0C4F20101884205D040F60001C4F20001AA
S315080053B0884204D1816801F00701062903D00168F3
S315080053C041F001010160FEE700214FF07E5000F038
S315080053D021BB012100F037BE0021084600F01ABBA8
S315080053E02DE9F0410026A0F50001B1F1FE4F7DD26E
S315080053F000F500226FF07E0101EBE251C2F3025480
S3150800540077184FF07E52A0EBC15602EB045557EAC7
S31508005410040047D02946304600F05EFA8046294601
S31508005420304600F069FD414600F0F4FA05460146AB
S3150800543000F096FC80464A4900F092FC494900F083
S315080054404BFA06464146284600F08AFC314600F0EB
S3150800545087FC0646384600F0EFFB0746424900F04F
S315080054607FFC4249794451F8241000F035FA314658
S3150800547000F032FA06463E49284600F071FC3146ED
S3150800548000F02AFA054638463A4900F069FC3A49D6
S31508005490794451F8241000F01FFA2946BDE8F04176
S315080054A000F01ABA4FF07E51304600F025FD054649
S315080054B0324900F055FC324900F00EFA294600F050
S315080054C04FFC304900F008FA294600F049FC2E49FD
S315080054D000F002FA04462946084600F041FC214637
S315080054E000F03EFC04462949284600E00EE000F09C
S315080054F037FC214600F0F0F904462549284600F015
S315080055002FFC2146BDE8F04100F0E6B94FF07F4296
